:020000021000EC
:1080000000400020C1CD010009CE01000BCE0100CF
:108010000000000000000000000000000000000060
:108020000000000000000000000000000DCE010074
:1080300000000000000000000FCE010011CE010082
:1080400013CE010013CE010021B4010071C501005F
:1080500013CE01000000000013CE010013CE01007A
:1080600013CE010013CE010013CE010013CE010088
:1080700013CE010013CE010013CE010013CE010078
:1080800013CE010013CE010013CE010013CE010068
:1080900013CE010013CE010013CE010013CE010058
:1080A00013CE010013CE010000000000000000000C
:1080B00000000000000000000000000000000000C0
:1080C00010B5064C2378002B07D1054B002B02D0AE
:1080D000044800E000BF0123237010BDF021002000
:1080E00000000000F4210200044B10B5002B03D067
:1080F0000349044800E000BF10BDC0460000000076
:10810000F4210020F4210200164B002B00D1144B67
:108110009D46402292029A1A924600218B460F46B3
:108120001348144A121A00F065F80F4B002B00D0C8
:1081300098470E4B002B00D09847002000210400E8
:108140000D000D48002802D00C4800E000BF00F0F0
:108150002DF82000290002F0ABF800F011F8C0461D
:1081600000000800004000200000000000000000A7
:10817000F0210020D02300200000000000000000BB
:10818000084B10B50400002B02D0002100E000BF16
:10819000054B1868836A002B00D09847200001F037
:1081A00079FFC046000000004C1B020070B500269D
:1081B0000C4D0D4C641BA410A64209D1002609F0F9
:1081C000B9FC0A4D0A4C641BA410A64205D170BD2F
:1081D000B300EB5898470136EEE7B300EB589847E9
:1081E0000136F2E7E8210020E8210020E821002004
:1081F000EC21002003008218934200D170471970CF
:108200000133F9E7F0B51E00002314008BB09E4245
:1082100004DA8021090673181E002D23129A149F78
:108220001370202303229F43462F07D03B00453B7A
:1082300059424B411099013ACB18109309AB049362
:1082400008AB0393139B00920293109B22000193AF
:10825000330000F0E3FC0500472F02D1119BDB0740
:1082600028D5109BEB180793462F14D12B78302B71
:108270000CD1002200232000310006F093FA0028E0
:1082800004D10123109A9B1A139A1360139B079A27
:108290001B68D3180793002200232000310006F04A
:1082A00081FA002801D0079B09933022099B079986
:1082B0008B4206D32800099B159A5B1B13600BB0F9
:1082C000F0BD591C09911A70F0E7F0B5831C87B016
:1082D000039305000C002B230270002901DA4C42A5
:1082E00002336B70092C31DD0A2704ABDE1D200040
:1082F0003900019606F040FA013E3031200031701D
:108300003900029406F052F9029B0400632BEEDC64
:10831000019B30349A1E13000399147004A807308F
:1083200098420ED804AB073300209A4204D804AB1D
:108330000930C018019BC01A039B1818401B07B0D6
:10834000F0BD1878013308700131E7E73023E418F5
:10835000AB70281DEC70F1E7F0B595B00C000892F9
:108360001A9D0993070001F03FFA036818000B9368
:1083700000F0C2FB00231293237E07221E00236815
:108380000D900C930C992B68C90547D59B18934306
:108390001A0008322A601A685B68A264E36401224A
:1083A000A36CE56C0A936B005B080E930A98A84BCC
:1083B0000E99524208F0BEFC002831D10122A44B94
:1083C0000A980E99524206F0FDF9002828D10022A1
:1083D000002329000A9806F0EBF9002803D02300B7
:1083E0002D2243331A709B4D472E00D99A4D0323FB
:1083F0000C9A236101339A43002322600A93099B5C
:10840000210000933800089B13AA00F0F3F9431CE5
:1084100000D09EE00120404215B0F0BD0733B6E722
:108420000A9A2B001000290008F084FC00280AD0CA
:10843000002D03DA23002D2243331A70874D472E77
:10844000D5D9874DD3E720223100636891430E913F
:108450005A1C47D10733636080230C9ADB00134317
:108460000022069212AA059211AA0392232208A9B9
:1084700023600193636852180292009338002B0026
:108480000A9A0496FFF7BEFE0E9B05001199472B32
:1084900008D1CB1C02DB6368994246DD3300023B06
:1084A000DBB21E00652E24D8200032000139503086
:1084B0001191FFF70AFF129A0A9013182361012AFB
:1084C00002DC2268D20701D501332361232308AAE5
:1084D0009B181B78002B00D191E723002D224333FA
:1084E0001A708CE70E9A472AB6D1002BB4D101330B
:1084F000B1E7662E1BD1636800290DDD2161002BD9
:1085000002D12268D20702D5013359182161119B8B
:10851000A36500230A93D9E7002B03D10122216828
:10852000114200D09A1C2261F1E767231E00119BC3
:10853000129A934206DB22682361D207E7D5013302
:108540002361E4E70121002B01DC4918C91A521804
:10855000E9E72268530508D423692A0038000899FE
:10856000099DA847431C29D154E7652E00D8ECE0AB
:10857000A06CE16C0022002306F014F9002834D02E
:1085800001233800374A0899099DA847431C00D1A8
:1085900040E7119B129A934202DB2368DB070DD55B
:1085A000099D38000D9B0B9A0899A8470025431C8C
:1085B00000D12FE7129B013BAB420ADC23689B07EB
:1085C00000D514E1139BE068984200DB24E7180013
:1085D00022E72200012338000899099E1A32B04789
:1085E000431C00D116E70135E4E7119B002B3BDC6F
:1085F000012338001B4A0899099EB047431C00D14B
:1086000008E7119B129A134302D12368DB07D5D5E3
:108610000D9B38000B9A0899099EB047431C00D166
:10862000F8E600230A93119B0A9A5B42934201DC0D
:10863000129B92E72200012338000899099E1A3202
:10864000B047431C00D1E5E60A9B0133EAE7C04688
:10865000FFFFEF7F501B0200541B0200581B02005B
:108660005C1B0200601B0200129AA36D0A929A42E0
:1086700000DD0A930A9B002B3DDC00230E930A9B2E
:10868000DB43DB170F93A36D0F9A0C930A9B1340E8
:108690000C9AD31A0E9A934236DC119B129A93428B
:1086A00040DB2368DB073DD4129A0C9B1199D31A47
:1086B000521A0A929A4200DD0A930A9B002B3ADC76
:1086C0000A9B0025DB43DB170B93119A129B0B9936
:1086D0009B1A0A9A0A409B1AAB4200DC6EE7220002
:1086E000012338000899099E1A32B047431C00D173
:1086F00090E60135E9E70A9B2A0038000899099EAF
:10870000B047431CB9D185E62200012338000899FF
:10871000099E1A32B047431C00D17BE60E9B013301
:108720000E93B0E70D9B38000B9A0899099EB0474D
:10873000431CB9D16EE60C9B3800EA1808990A9BD5
:10874000099DA847431CBBD164E6129B012B02DCA8
:1087500001231A4238D001232A0038000899099EC3
:10876000B047431C00D155E60D9B38000B9A089981
:10877000099EB047431C00D14CE6A06CE16C00227E
:10878000002306F00FF800281CD1129B6A1C013B45
:1087900038000899099DA847431C0FD13AE62200EA
:1087A000012338000899099E1A32B047431C00D1B2
:1087B00030E60135129B013BAB42F0DC22000A9B04
:1087C0005032CBE60025F5E72A00E1E7220001233D
:1087D00038000899099E1932B047431C00D119E6A8
:1087E0000135E368139A9B1AAB42EFDCEAE60025F9
:1087F000F7E7C046F7B5150001938A680B690C00CE
:108800000090934200DA130022002B60433212786A
:10881000002A01D001332B6023689B0602D52B6808
:1088200002332B602268062317001F401A4227D00C
:10883000230043331B785A1E93412268920630D49A
:10884000220001990098089E4332B047431C25D06E
:10885000062320682A68E16800250340042B03D121
:108860008D1AEB43DB171D40A3682269934201DD9B
:108870009B1AED180027BD4220D1002010E00137DF
:10888000E3682A689B1ABB42D2DD220001230199CA
:108890000098089E1932B047431CF0D10120404295
:1088A000FEBD3020E1184331087021005A1C4531CB
:1088B0000978A218433202331170C1E72200012364
:1088C00001990098089E1A32B047431CE6D0013740
:1088D000D1E70000F0B58BB006920A00433207934F
:1088E000059004920A7E0C00109B782A06D8622A12
:1088F00008D8002A00D1C0E0582A52D026004236BB
:10890000327022E0100063381528F7D805F0BAFD60
:1089100016001F00F6FFF6FFF6FFF6FF1F00F6FF3A
:10892000F6FFF6FFF6FFA80036009A00F6FFF6FF06
:10893000B900F6FF3600F6FFF6FF9E0026001A6823
:108940004236111D1960136833700123A7E00868CF
:1089500019680A1D05060BD50D681A60002D03DA8B
:108960002D23049A6D421370614B0A27039332E062
:108970000D681A604106F1D52DB2EFE70D68196850
:10898000081D18602E0601D50D6803E06D06FBD5A5
:108990000D68ADB2564B0A2703936F2A17D10827EB
:1089A00015E045310A70524A03921A68216820CABC
:1089B0001A60080650D5CB0702D520231943216041
:1089C0001027002D03D1202322689A432260230020
:1089D000002243331A706368A360002B03DB042278
:1089E000216891432160002D02D1049E002B0CD000
:1089F000049E2800390005F0D5FD039B013E5B5C19
:108A000033702B0005009F42F3D9082F09D123684A
:108A1000DB0706D563682269934202DC3023013EFE
:108A20003370049B9B1B2361079B210000930598D7
:108A3000069B09AAFFF7DEFE431C35D10120404208
:108A40000BB0F0BD202209680A4322602200782181
:108A500045321170274AA7E74806ACD5ADB2AAE760
:108A60001A680D68101D4969186013682E0601D533
:108A7000196002E06D06FBD519800023049E236176
:108A8000D2E71A68111D196016680021300062686B
:108A900000F0B8FE002801D0801B6060636823618D
:108AA0000023049A1370BFE72369320006990598E2
:108AB000079DA847431CC1D023689B0715D4099B79
:108AC000E0689842BCDA1800BAE722000123069950
:108AD0000598079E1932B047431CAFD00135E368B3
:108AE000099A9B1AAB42F0DCE9E70025F7E7C0469C
:108AF000621B0200731B02000023C25C0133002AC8
:108B0000FBD1581E7047F0B506000D69336987B078
:108B100000200291AB426BDB0B00013DAC00143333
:108B200005931B1903933300143301931C19039B02
:108B300027681B683800009301331900049305F07F
:108B4000ABFC049B00909F4229D300239C460198D4
:108B5000059F049308CF009A99B251431B0C5343CD
:108B600061440A0C9B181A0C0593036894469AB248
:108B7000049B89B2D2180368521A190C6B469B8A5F
:108B8000CB1A11145B18191492B21B041A43039BDD
:108B9000049104C0BB42DDD22368002B2ED03000EC
:108BA000029901F07BF8002821DB30000024009BB3
:108BB00002990133009314301431026808C992B24B
:108BC00014199AB2A21A04681B0C240CE31A141488
:108BD0001B191C1492B21B04134308C0039B8B4245
:108BE000EBD2019AAB00D3181A68002A10D0009873
:108BF00007B0F0BD2368002B04D1013D019B043C6C
:108C0000A342F7D33561CAE71A68002A04D1013DAF
:108C1000019A043B9A42F7D33561E8E7F0B59FB07B
:108C200002920393029B039C0C930D94446A279D2C
:108C30000590002C08D1102000F0DAFD059B44605F
:108C4000586284600460C460059B5B6A19680029EF
:108C50000BD05A68012393404A608B60059800F05E
:108C60001DFE0022059B5B6A1A60039B002B21DA24
:108C700001232B60039B5B005B080D930D9DB64B9E
:108C80002A001A931A409A4217D1B44B269A280305
:108C90001360029B000B184301D100F08FFDB04B15
:108CA000289A0A93002A02D0AE4B289A13600A9899
:108CB0001FB0F0BD00232B60E0E70C9B0D9C1293CE
:108CC0001394129813990022002305F06BFD041EE3
:108CD0000BD00123269A1360A34B289A0A93002AEB
:108CE000E5D0A24A28990A60E1E71CAB01931DABCD
:108CF00000930598129A139B01F06EF86E0006908F
:108D0000760D00D17EE012981399139B984A1B03AD
:108D10001B0B1A431100974B1894F6180022964B20
:108D200007F076FC954A964B07F006FA954A964B63
:108D300006F092FA040030000D0008F04FF8934A54
:108D4000934B07F0F9F902000B002000290006F010
:108D500083FA04000D0008F00BF8002202900023B3
:108D60002000290005F024FD00280BD0029808F00F
:108D700035F82B00220005F015FD43425841029BB7
:108D80001B1A029301231693029B162B0FD81298DD
:108D90001399DA007F4B9B181A685B6805F008FD91
:108DA00000284BD0029B013B0293002316931C9B8F
:108DB0009E1B00230B933300013B0F9304D501232B
:108DC0009B1B0B9300230F93029B002B38DB029A13
:108DD0000F9B944663440F93002315921093249B9A
:108DE0000124092B00D990E0052B02DD0024043B6F
:108DF0002493249B981E032800D98FE005F038FBAC
:108E0000293634831C9B1D9A9E18634BF218202A26
:108E10000FDD40239B1A9D40604B0298F318D84009
:108E2000284308F00BF801235D4C013E0919189303
:108E300074E7202302989B1A9840F2E71690B6E751
:108E40000B9B029A9B1A0B9353421093002315938A
:108E5000C5E700231493259B002B63DC01231A0034
:108E60000E93079325920DE00123F3E70023259A43
:108E700014939446029B63440E9301330793002B93
:108E800000DC0123059A556A00226A600432100052
:108E900014306968984249D9059800F0C7FC059BD1
:108EA00028605B6A1B680A93079B0E2B00D9F2E0CF
:108EB000002C00D1EFE0029B002B75DD1A000F2182
:108EC000344B0A40D2009B181D685E68029B022743
:108ED0001C11DB050AD5334B0C401A6A5B6A1298E9
:108EE000139906F023FD0C900D9101372D4B08933B
:108EF000002C1FD10C980D992A00330006F016FDA6
:108F00000C900D916BE00123B1E70023149424939E
:108F1000013B0E93079300221333A3E7012314931D
:108F2000023BF6E7259B0E930793ABE7013169609F
:108F30005200ACE701231C4209D0FF18089B28000F
:108F40001A685B68310007F0F7F805000E00089B0F
:108F500064100833CBE7C0460000F07F0F27000005
:108F60008D1B0200901B0200601B0200611B0200AF
:108F70000000F03F01FCFFFF0000F83F61436F631A
:108F8000A787D23FB3C8608B288AC63FFB799F5022
:108F90001344D33FC01B020032040000120400003F
:108FA000000010FE981B0200029B0227002B16D027
:108FB000129813995C420F23D34A2340DB00D31845
:108FC0001A685B6807F0B8F8012600230C900D9131
:108FD000CE4D2411002C00D08DE0002B90D1169B9B
:108FE000002B00D192E00C9C0D9D00222000290056
:108FF000C74B05F0DDFB002800D187E0079B002B65
:1090000000D183E00E9B002B41DD029B0022013B3F
:10901000119320002900BF4B07F08EF80C900D91A2
:109020000E9E013738000C9C0D9D07F0D7FE2200E4
:109030002B0007F081F80022B74B06F00DF90C90D9
:109040000D910C9A0D9B089209930D9BB34A9F18A2
:109050000997002E5ED1002220002900B04B07F0B6
:10906000D7FA3B00089A04000D0005F0B5FB002874
:1090700000D0A8E2AB480D99844661440B00200063
:109080002900089A05F094FB002800D099E2129B71
:10909000139C0C930D941D9B002B00DA68E1029A3F
:1090A0000E2A00DD64E1984BD2009B181E685F68B1
:1090B000259B002B00DBD7E0079B002B00DDD3E0D6
:1090C00000D07DE2002230003900954B07F034F8E3
:1090D0000C9A0D9B05F08AFB079E3700002800D0F4
:1090E00054E20A9B0A9A0133089331231370029BBE
:1090F000013302934FE2344205D02A686B6807F0CF
:109100001BF8330001376410083563E7029B079EA4
:10911000119387E77C4B721ED20014999B181A6832
:109120005B6800294ED000207F4906F0FFFB089ABB
:10913000099B07F06DFA0A9B0C900D911793F31899
:109140001B932000290007F013FE199007F046FE3C
:1091500002000B002000290007F05AFA179B199C07
:1091600001330893179B30341C700C9A0D9B06003A
:109170000F0005F01DFB00286CD132003B000020E1
:10918000634907F045FA0C9A0D9B05F011FB002886
:1091900000D0CDE01B9B089A934200D177E70C9852
:1091A0000D9900225B4B06F0C7FF5A4B0C900D91B6
:1091B00000223000390006F0BFFF089B04000D00BC
:1091C0001793BEE70898099906F0B6FF0A9F0C901E
:1091D0000D91BB1917932900200007F0C9FD0890D5
:1091E00007F0FCFD0B0002002900200007F010FA38
:1091F000089B040030333B70179B01370D00BB42C6
:109200002BD10C980D990A9B00229B190893464B71
:1092100006F022F802000B002000290005F0DCFA1D
:10922000002800D084E00C9A0D9B00203E4907F0F6
:10923000EFF902000B002000290005F0B9FA002820
:1092400000D124E7089B1A00013A08921278302ACC
:10925000F8D00893119B029345E000222D4B06F0B5
:109260006BFF04000D00B6E70A9B079A0B93013BC6
:109270009B180C9C0D9D0C9332003B002000290094
:1092800006F054FB07F074FD079007F0A7FD3200CD
:109290003B0006F051FF02000B002000290007F000
:1092A000B7F90B9B1A0001320B920892079A3032E1
:1092B0001A700C9A9A424ED102000B0005F0CCFFB6
:1092C00032003B0004000D0005F086FA00282DD185
:1092D00032003B002000290005F064FA002802D08B
:1092E000079BDB0722D40598069900F0D7FA0023E4
:1092F000089A02981370269B01301860289B002B57
:1093000000D1D4E41A60D2E4C01B0200981B020012
:109310000000F03F0000244000001C400000C0FCA2
:10932000000014400000C07C0000E03F029B11934D
:10933000089B0893013B1A78392A08D10A9A9A4265
:10934000F7D1119A0A990132119230220A701A78D3
:1093500001321A707EE70022CC4B06F0EDFE0022AF
:10936000002304000D0005F01DFA002884D0BAE7A0
:10937000149A002A00D18AE0249A012A6EDC189AF5
:10938000002A67D0C24A9B18109D0B9C0B9A0121A2
:10939000D2180B920F9A0598D3180F9300F01DFB6B
:1093A0000700002C0EDD0F9B002B0BDD0F9A230016
:1093B000944200DD13000B9AE41AD21A0B920F9A12
:1093C000D31A0F93109B002B1ED0149B002B62D03E
:1093D000002D10DD39002A00059800F0ABFB069A3D
:1093E00001000700059800F001FB060006990598AA
:1093F00000F054FA0696109B5A1BAB4204D0069913
:10940000059800F097FB06900121059800F0E5FA19
:10941000159B0600002B40DD1A000100059800F0A6
:1094200089FB249B06000025012B3EDC00250C9BBC
:10943000AB4236D10D9B1B03AB4232D11A9B0D9A26
:1094400013422ED00B9B013501330B930F9B01333D
:109450000F9326E036231C9A9B1A95E7079B5D1E07
:10946000109BAB4208DB5D1B079B002B0CDA0B9BB0
:10947000079A9C1A002389E7109B159AEB1AD318B8
:10948000109515930025EFE70B9C079B7EE7109D39
:109490000B9C149F85E7109AB1E7249B0025012BB4
:1094A000C4DD159B0120002B08D0336903339B00DA
:1094B000F318586800F049FA2023181A0F9B1F224E
:1094C000181803001340104246D00132D21A042A61
:1094D0003FDD1C22D31A0B9AE418D2180B920F9A74
:1094E000D3180F930B9B002B05DD1A0006990598E6
:1094F00000F070FB06900F9B002B05DD31001A0079
:10950000059800F067FB0600169B002B26D0310063
:10951000069800F0C3FB002820DA029B0A22013BD8
:10952000029306990023059800F0D1F9149B069048
:10953000002B00D14CE1002339000A22059800F0ED
:10954000C6F90E9B0700002B47DC249B022B44DD51
:109550000CE0042AC6D013001C33BCE7079B002B89
:1095600035DC249B022B32DD079B0E930E9B002BD8
:109570000CD131000522059800F0A9F90600010080
:10958000069800F08BFB002800DDAAE5259BDB4355
:1095900002930A9B089300253100059800F07EF99C
:1095A000002F00D19FE6002D05D0BD4203D0290039
:1095B000059800F073F93900059800F06FF992E60C
:1095C00000263700E2E7119B3700029389E5149BE0
:1095D000002B00D1B4E0079B0E93002C05DD390071
:1095E0002200059800F0F6FA07003800002D11D08F
:1095F0007968059800F01AF9390004003B690C31CC
:109600009A1C92000C3000F008F901222100059804
:1096100000F0E0FA3D0007000A9B0793310006982E
:10962000FFF771FA290004000F90069800F036FB4E
:109630003A0010903100059800F04BFBC3683034BD
:10964000119301230B93119B0890002B04D101006F
:10965000069800F023FB0B900598089900F01EF97E
:1096600001230C980B9A1840079B01330893249B05
:10967000134303430ED1392C26D0109B002B01DD60
:109680000F9C3134079B1C7086E7C04600002440C5
:1096900033040000109B002B03DB249A1343034385
:1096A0001ED10B9B002BEDDD06990122059800F0E1
:1096B00091FA3100069000F0F1FA002802DCE1D1C5
:1096C000E307DFD5392CDBD13923079A1370089BC8
:1096D0000893013B1A78392A67D001321A705BE788
:1096E0000B9B002B03DD392CEED00134CAE7079B1E
:1096F0000A9A1C7001239B1A079A9B180E9A9A4289
:109700003ED000230A220699059800F0E0F80023D5
:1097100006900A2229000598BD4206D100F0D7F82C
:1097200005000700089B079378E700F0D0F83900A0
:10973000050000230A22059800F0C9F80700F1E7A8
:10974000079B0E93002531000698FFF7DCF90A9B72
:10975000303058550E9B01350400AB4207DD002325
:109760000A220699059800F0B2F80690EBE70E9BE6
:109770000120002B00DD180000250A9B1B18089310
:1097800006990122059800F025FA3100069000F0B4
:1097900085FA00289BDC01D1E30798D4089B089345
:1097A000013B1A78302AFAD0F6E60A9A9A428FD10B
:1097B000029B0133029331231370EDE6084B289A84
:1097C0000A93084B002A01D0FFF76FFAFFF76FFAF0
:1097D0000E9B002BB6DC249B022BB3DDC6E6C046F5
:1097E000841B02008C1B020000487047542100209B
:1097F00010B5034B0100186800F09CFB10BDC0467B
:1098000000200020C9B28218904201D10020704788
:1098100003788B42FBD00130F6E7002310B59A4263
:1098200000D110BDCC5CC4540133F8E770B5456A73
:1098300006000C00002D07D11020FFF7D9FF706241
:10984000456085600560C560756AEB68002B13D0C4
:10985000736AA200DB689B181868002818D10121E0
:109860000D00A5406A1D3000920000F00BFB00289F
:109870000CD0446085600DE021220421300000F00E
:1098800001FB736AE860DB68002BE1D1002070BD4A
:1098900002681A6000230361C360F8E770B5466A86
:1098A00005000C00002E07D11020FFF7A1FF686211
:1098B000466086600660C660002C07D06B6A6268EE
:1098C000DB6892009B181A6822601C6070BDF7B5B7
:1098D0001E0014239C4607000C0000200D698C44D8
:1098E00063461B68013099B263461B6851431B0CE9
:1098F000534389190E0C9B1989B21E0C1B045B186B
:10990000614608C18C468542EADC002E1BD0A36864
:10991000AB4212DC63683800591CFFF787FF210057
:10992000236901909A1C92000C310C30FFF775FFEF
:1099300021003800FFF7B2FF019C2B1D9B00E318AC
:1099400001355E6025612000FEBD0300020C002091
:10995000824201D11B0410301A0E01D108301B02C3
:109960001A0F01D104301B019A0F01D102309B0064
:10997000002B03DB01305B0000D42020704703681C
:1099800002000721180008400B420DD006390020C4
:109990000B4205D10230034203D0CB4008001360D4
:1099A00070479B081360FBE799B2002901D1102092
:1099B0001B0CD9B2002901D108301B0A190701D1AB
:1099C00004301B09990701D102309B08D907E9D45B
:1099D00001305B08E6D12020E2E710B50C00012140
:1099E000FFF724FF01234461036110BDF0B50B694B
:1099F000140012690D0089B0934201DA25000C00B1
:109A00002F6926696968BB190193AB68BA1993423B
:109A100000DA0131FFF70AFF030014339C46BB193B
:109A20009B006344029300226346049002998B4298
:109A30002CD32B0022001433BF0014320693B6003F
:109A4000DB19039393190793042305932B000399C0
:109A500015330092994205D34B1B153B9B080133EC
:109A60009B000593079B009A9A4211D3019B002B00
:109A700006DD029B043B02931B680093002B54D02D
:109A8000049B019A18001A6109B0F0BD04C3CDE728
:109A9000009B1B6898B200281CD067460024069ED5
:109AA00002CE3A688BB24343090C414392B29B18F1
:109AB0001B190C003A68110C61181C0C09190C0CCC
:109AC0009BB209040B4308C7039BB342E8D8634623
:109AD000059A9C50009B1B681E0C20D063462C00EE
:109AE000604600271B68143422689BB291B2714310
:109AF0000268120C8918CF1939040B43036002CC99
:109B00004368090C71439BB23F0CCB18039ADB19D5
:109B10001F0C0430A242E7D8624605995350009BBF
:109B20000433009304239C449CE7019B013B019375
:109B30009CE70000F7B50323150007000E001A404C
:109B40001D4208D02149013A9200525800233100A9
:109B5000FFF7BDFE0600AD1035D07C6A002C07D1A2
:109B60001020FFF745FE7862446084600460C460A2
:109B70007B6A9C680193002C08D138001449FFF7D8
:109B80002CFF019B040098600023036001231D4209
:109B90000AD0310022003800FFF728FF3100019081
:109BA0003800FFF77BFE019E6D100CD02068002866
:109BB00007D1220021003800FFF718FF00232060A2
:109BC00003600400E2E73000FEBDC046881C0200CE
:109BD00071020000F0B50C0017002369551187B021
:109BE000EB180293013301934968A3680490019A2A
:109BF000934246DB0498FFF719FE02001432060078
:109C0000002311000392AB423EDBEB43DB171D4008
:109C1000039BAD001F2138005D1923002269143316
:109C20009200084084469A180F4232D00131091A36
:109C300005910021039567461868B84001430398D1
:109C400002C002CB03900598C1409A42F3D820008D
:109C500015300423904204D8131B153B9B08013395
:109C60009B00E950002902D0029B02330193019B23
:109C70000498013B21003361FFF710FE300007B06C
:109C8000F0BD01315B00B2E7002298000A500133B9
:109C9000B9E702CB02C59A42FBD8E8E702690B6933
:109CA00030B50400D01A9A420DD19B0014341431FF
:109CB000E218C918043A043915680B689D4203D0AC
:109CC00001209D4203D330BD9442F3D3FBE74042D1
:109CD000F9E7F0B50E0007001100300087B014005E
:109CE000FFF7DCFF051E08D101003800FFF79EFDDD
:109CF00001234561036107B0F0BD012301930028F2
:109D000004DB230034001E00002301936168380047
:109D1000FFF78CFD019B256914340194C360019BFE
:109D2000AC001B1934000293336914349900631892
:109D300003930300002714339C460593019B04936F
:109D4000049B04CC02CB04938BB2DF1993B2FB1AB1
:109D5000090C120C8A1A1914521817149BB2120407
:109D60001343624608C2039B9446A342E8D83200DC
:109D7000039915320423914204D38B1B153B9B0896
:109D800001339B00019AD418059AD3189C462200EF
:109D900002998A4210D3029EE11E00228E4204D311
:109DA00032000332121B920892009B18043B1A687F
:109DB000002A0FD005619EE702CA8EB2F6190F0C79
:109DC000311479180F14B6B209040E43614640C12C
:109DD0008C46DDE7013DE9E7F7B51D0001211400E0
:109DE000089FFFF723FD2B036D0006001B0B6D0D75
:109DF00024D10193002C27D068460094FFF7BFFDC3
:109E0000009C00281ED0019B20211A00091A8A40BC
:109E1000C340224372610193019CB461631E9C4163
:109E200001343461002D18D0134BED1835232D1853
:109E3000181A099B3D6018603000FEBD8022520355
:109E40001343D6E77461E7E701A8FFF798FD012403
:109E5000019B346173612030E4E7084BC018084B64
:109E60003860E3189B00F3185869FFF76EFD640132
:109E7000099B241A1C60DFE7CDFBFFFFCEFBFFFF31
:109E8000FFFFFF3F4A4370B51100150000F052F884
:109E9000041E03D02A000021FEF7ACF9200070BD9B
:109EA00070B50500002910D00C1F2368002B00DAC4
:109EB000E418280000F0C0F81D4A1368002B05D1F3
:109EC00063601460280000F0BFF870BDA34208D999
:109ED000216860188342F3D118685B6841182160DB
:109EE000EEE71A005B68002B01D0A342F9D9116894
:109EF0005018A0420BD120680918501811608342F5
:109F0000E0D118685B68411811605360DAE7A0423D
:109F100002D90C232B60D5E721686018834203D156
:109F200018685B684118216063605460CAE7C046E6
:109F30000C220020F8B50323CD1C9D4308350600F4
:109F40000C2D1FD20C25A9421ED8300000F074F849
:109F500025490A681400002C1AD1244F3B68002BB5
:109F600004D12100300000F043F8386029003000AF
:109F700000F03EF8431C2BD10C233000336000F07E
:109F800063F803E0002DDEDA0C2333600020F8BD17
:109F900023685B1B19D40B2B03D92360E4182560BD
:109FA00003E06368A2420ED10B60300000F04CF871
:109FB000200007220B30231D9043C21A9842E6D09E
:109FC0001B1AA350E3E75360EFE722006468C2E77F
:109FD0000323C41C9C43A042E1D0211A300000F0AE
:109FE00007F8431CDBD1C7E70C2200201022002019
:109FF000002370B5064D040008002B6000F03CF80B
:10A00000431C03D12B68002B00D0236070BDC046D9
:10A01000C023002082B0002900D101A9101E06D063
:10A02000002B06D013780B601078431E984102B0C5
:10A03000704702204042FAE710B5024800F01AF8D3
:10A0400010BDC046C823002010B5024800F013F828
:10A0500010BDC046C82300200300081E05D0FF2AFB
:10A0600004D98A2201201A604042704701200A70F8
:10A07000FBE7704770477047044A030010680028E8
:10A0800002D0C318136070470148FAE71422002079
:10A09000D0230020FEE7C04680B500AF00F01CF8DA
:10A0A000031E06D0094B0A4A1A600A4B802212028C
:10A0B0001A6000F051F8031E05D08023DA05C12391
:10A0C000DB000121D150C046BD4680BD04050040E3
:10A0D000DFFF07C0186C004080B500AF1A4B1B684B
:10A0E000FF221340012B2AD1184B1B680F2213406B
:10A0F00025D1174B1B68F022134006D1154B1B6866
:10A10000F022134001D101231AE0114B1B68F02209
:10A110001340102B06D10F4B1B68F022134001D1C6
:10A1200001230DE00A4B1B68F0221340302B06D1AF
:10A13000084B1B68F022134001D1012300E00023EB
:10A140001800BD4680BDC046E00F00F0E40F00F0EF
:10A15000E80F00F0EC0F00F080B500AF0D4B1B686E
:10A16000FF221340012B11D10B4B1B680F22134010
:10A170000CD10A4B1B68F0221340402B06D1084B30
:10A180001B68F022134001D1012300E000231800D6
:10A19000BD4680BDE00F00F0E40F00F0E80F00F0D6
:10A1A000EC0F00F090B583B000AF78600C001000A9
:10A1B0001900FB1C221C1A70BB1C021C1A707B1C91
:10A1C0000A1C1A70FB1C1A78BB1C1B785B001A4314
:10A1D0007B1C1B789B001A431823FB181B781B025F
:10A1E0001A4311001C23FB181B781A04A023DB055B
:10A1F00011437A68C132FF329200D150C046BD4649
:10A2000003B090BD80B584B002AF78607868002359
:10A21000019300230093002301220121FFF7C2FFD5
:10A22000C046BD4602B080BD80B582B000AF786048
:10A23000A023DA0501217B689940A123DB00D150DE
:10A24000C046BD4602B080BD80B582B000AF786028
:10A25000A023DB0501217A6891400A0002495A5087
:10A26000C046BD4602B080BD0C05000080B582B07E
:10A2700000AF78607B681B78022B07D17B685B6836
:10A280000A4A2221180000F0BFF90AE07B681B7817
:10A29000012B06D17B685B68044A2621180000F078
:10A2A000B3F9C046BD4602B080BDC046A81D02003D
:10A2B000F0B59BB004AF4F2308229446BC446344DE
:10A2C00000221A702C200823FB181B18A94A32CA36
:10A2D00032C30C217B18A84A1A607B1801225A60ED
:10A2E0007B18A64A9A607B1880225200DA60A44A42
:10A2F000791808239C46BC446044032300F0F6FA16
:10A3000003007B647B6C3B643B6C002B05D09D4A57
:10A310003B6C4B21180000F077F902F021FC04237C
:10A320003B650AE03B6D1800FFF76CFF3B6D1800C2
:10A33000FFF77AFF3B6D01333B653B6D0C2BF1DD85
:10A340000D23FB640AE0FB6C1800FFF75BFFFB6C5E
:10A350001800FFF779FFFB6C0133FB64FB6C0F2BDC
:10A36000F1DD0420FFF770FF0A2000F017F9864B9B
:10A37000180002F04DF9854B180006F079FE02F046
:10A38000FBF9C0460B23FB18180000F03DFB031E31
:10A39000F8D1C0460B243B191B78180000F05CFB79
:10A3A000031EF7D13B191B78672B03D03B191B7891
:10A3B000472B46D1764B180006F05AFE432308225D
:10A3C0009446BC44634400221A7032E020260824DC
:10A3D0003B199B19180002F0E3F93B199B191B6804
:10A3E000181C06F051FD386079603B199B195B68B9
:10A3F000181C06F049FD04000D0008203B189B19AD
:10A400009B68181C06F040FD02000B006149029297
:10A410000393009401953A687B68080006F028FED3
:10A42000432108203B185B181A783B185B1801324F
:10A430001A70432308229446BC4463441B78632B60
:10A44000C4D90B22BB181B78682B03D0BB181B7810
:10A45000482B50D14E4B180006F00AFE422308222A
:10A460009446BC44634400221A703CE02024082532
:10A470007B191B19180002F093F914267B199A19FD
:10A480007B191B191100180002F076FA2C003B19F9
:10A490009B191B68181C06F0F7FC386079603B19A3
:10A4A0009B195B68181C06F0EFFC04000D000820E7
:10A4B0003B189B199B68181C06F0E6FC02000B0079
:10A4C000344902920393009401953A687B6808002E
:10A4D00006F0CEFD422108203B185B181A783B1885
:10A4E0005B1801321A70422308229446BC4463442C
:10A4F0001B78632BBAD90B22BB181B78632B03D0B4
:10A50000BB181B78432B01D102F056FB0B22BB1862
:10A510001B78712B04D0BB181B78512B00D030E76F
:10A520001D4B180006F0A4FD4F2308229446BC449E
:10A5300063441B78002B03D00D20FFF775FE02E06B
:10A540000D20FFF781FE4F2108203B185B181B7878
:10A550005A1E9341DBB201225340DBB21A003B1872
:10A560005B181A701A7801210A401A70642000F0F2
:10A5700015F8D9E7181E0200182200201C2200201E
:10A580006DA20100A81D0200A01D0200CC1D02004A
:10A59000D81D0200F41D02000C1E020080B584B01C
:10A5A00000AF786015E07B68013B7B600D4BFB6082
:10A5B000FB6818000138C046C046C046C046C046C9
:10A5C000C046C046C046C046C046C046C046F1D19F
:10A5D000C0467B68002BE6D1C046C046BD4604B0ED
:10A5E00080BDC046E703000080B500AFBFF34F8FCA
:10A5F000C046034B034ADA60BFF34F8FC046FEE705
:10A6000000ED00E00400FA0580B584B000AFF8600A
:10A61000B9607A60FFF7E8FFC046BD4604B080BD70
:10A6200080B584B000AF78607B689B68FB607B6816
:10A63000DA68FB68D31A1800BD4604B080BD80B547
:10A6400082B000AF78600A00FB1C1A707B681A6841
:10A650007B68DB68796889880B40D318FA1C12780C
:10A660001A707B68DB685A1C7B68DA60C046BD469E
:10A6700002B080BD80B582B000AF786039607B6881
:10A680001A687B689B68796889880B40D3181A78A8
:10A690003B681A707B689B685A1C7B689A60C0464E
:10A6A000BD4602B080BD80B584B000AFF860B9602F
:10A6B000BB1D1A80BB68002B01D10E231CE0BB1D03
:10A6C0001B88002B06D0BB1D1B88013BBA1D1288BE
:10A6D000134001D009230FE0FB68BA681A60BB1D64
:10A6E0001B88013B9AB2FB689A80FB6800229A6043
:10A6F000FB680022DA6000231800BD4604B080BD6C
:10A7000080B582B000AF78600A00FB1C1A707B68CD
:10A710001800FFF785FF02007B689B889A4208D8E3
:10A72000FB1C1A787B6811001800FFF788FF0023D4
:10A7300000E004231800BD4602B080BD80B582B0A1
:10A7400000AF786039607B681800FFF769FF031E6F
:10A7500007D03A687B6811001800FFF78BFF0023D1
:10A7600000E005231800BD4602B080BD80B586B06C
:10A7700000AFF860B9607A6000237B6109E0BB68D4
:10A780005A1CBA601B78180000F066F97B69013327
:10A790007B617A697B689A42F1DB7B681800BD4671
:10A7A00006B080BD80B584B000AFF860B9607A6053
:10A7B000C046BB68180000F027F90300052BF8D04D
:10A7C00001231800BD4604B080BD80B584B000AF41
:10A7D00078607B689B68FB607B68DA68FB68D31AEB
:10A7E0001800BD4604B080BD80B586B000AF78606B
:10A7F00039607B681B78012B38D17B685B681A78DD
:10A80000354B11001800FFF77BFF03007B617B696C
:10A81000002B0CD00C217B1801221A707B187A694E
:10A820005A602E4B1B687A18100098470FE02A4B8D
:10A830001800FFF7CAFF0300012B08D10C217B1879
:10A8400000221A70254B1B687A1810009847224B7B
:10A850001800FFF7BAFF02001F4B9B889A4237D8B7
:10A860001F4B0121180000F0D5FC31E07B681B78FC
:10A87000022B0DD10C217B1802221A707B68DA683A
:10A880007B185A60154B1B687A18100098471FE018
:10A890007B681B78002B1BD1124A134B1100180048
:10A8A000FFF74CFF031E04D10E4B0121180000F0EE
:10A8B000F5FB0D4B1800FFF788FF031E08D10C2194
:10A8C0007B1803221A70054B1B687A1810009847F2
:10A8D000C046BD4606B080BD282300201C230020B2
:10A8E000242300202023002038230020B0B58EB080
:10A8F00000AFF860B9607A601A00FB1C1A703C4B1C
:10A900007A681A60BB68002B01D107236BE0BB6833
:10A910001968BB685B689AB2364B1800FFF7C3FE34
:10A9200003007B637B6B002B01D07B6B5BE0BB6820
:10A930009968BB68DB689AB22F4B1800FFF7B3FE2B
:10A9400003007B637B6B002B01D07B6B4BE01421FE
:10A950007B182A4A31CA31C331CA31C311CA11C363
:10A96000FB689A687B189A61FB681B795A1E9341B1
:10A97000DBB21A007B181A757B18FA1C12781A774A
:10A98000FB685B79002B01D00E2200E0002214212D
:10A990007B185A75FB68DB781A007B189A60FB6895
:10A9A0009B781A007B18DA60FB681B781A007B180A
:10A9B0005A60FB685B781A007B181A60104A7B1893
:10A9C0001100180000F004FB03007B637B6B002B7D
:10A9D00001D07B6B07E000F0CBFC0A4B0121180093
:10A9E00000F018FC03001800BD460EB0B0BDC04614
:10A9F0001C2300202823002038230020241E0200CE
:10AA0000E9A701002423002080B584B000AF78605E
:10AA10000F4B1800FFF7D9FE02000D4B9B889A429E
:10AA20000BD10C4B0121180000F0F4FB0300FB607C
:10AA3000FB68002B01D0052306E07A68044B110067
:10AA40001800FFF77BFE03001800BD4604B080BD70
:10AA5000282300202423002080B584B000AF02000A
:10AA6000FB1D1A700D4BFA1D12781A700B4B012149
:10AA7000180000F013FB0300FB60FB68112B08D1EA
:10AA8000FB1D1A78064B11001800FFF739FE030072
:10AA9000FB60FB681800BD4604B080BD2123002088
:10AAA0003823002080B582B000AF0200FB1D1A7071
:10AAB000FB1D1B781A001F23134001229A40034BF1
:10AAC0001A60C046BD4602B080BDC04600E100E04D
:10AAD00080B582B000AF0200FB1D1A70FB1D1B7811
:10AAE0001A001F23134001229A401300044A190040
:10AAF000C0235B00D150C046BD4602B080BDC046F9
:10AB000000E100E090B583B000AF02003960FB1DAA
:10AB10001A70FB1D1B787F2B32D92F4AFB1D1B7827
:10AB200019000F230B40083B9B0806339B00D318EA
:10AB300004331B68FA1D1278110003220A40D20068
:10AB4000FF2191400A00D2431A4011003B689B014B
:10AB5000FF221A40FB1D1B78180003230340DB0073
:10AB60009A401D48FB1D1B781C000F232340083B07
:10AB70009B080A4306339B00C31804331A6027E07E
:10AB8000164AFB1D1B785BB29B08C0339B009B5889
:10AB9000FA1D1278110003220A40D200FF219140D1
:10ABA0000A00D2431A4011003B689B01FF221A4061
:10ABB000FB1D1B78180003230340DB009A40074865
:10ABC000FB1D1B785BB29B080A43C0339B001A50E5
:10ABD000C046BD4603B090BD00ED00E000E100E0DE
:10ABE00080B582B000AF0200FB1D1A70BB1D0A1CAD
:10ABF0001A70BB1D1A78FB1D1B785BB21100180080
:10AC0000FFF780FFFB1D1B785BB21800FFF760FFAA
:10AC1000FB1D1B785BB21800FFF744FFC046BD4622
:10AC200002B080BD80B582B000AF78600A00BB1C66
:10AC30001A80BB1C1B887A68D31800221A60C04691
:10AC4000BD4602B080BD80B582B000AF78600A001A
:10AC5000BB1C1A80BB1C1B887A68D3181B685A1E41
:10AC60009341DBB21800BD4602B080BD80B582B012
:10AC700000AF786039607A68C1239B003968D15091
:10AC8000C046BD4602B080BD80B582B000AF7860DE
:10AC900039607A68C1239B00D3583A6813405A1E22
:10ACA0009341DBB21800BD4602B080BD80B582B0D2
:10ACB00000AF786039607A68C2239B003968D15050
:10ACC000C046BD4602B080BD80B584B000AF78609C
:10ACD0007A689023DB00D358FB607A689023DB000E
:10ACE000F968D150FB681800BD4604B080BD80B53E
:10ACF00082B000AF78607A68A023DB000421D150D5
:10AD0000C046BD4602B080BD80B584B000AFF860DB
:10AD1000B9607A60FB680549BA685A50FB68044913
:10AD20007A685A50C046BD4604B080BD0C0500008C
:10AD30001405000080B584B000AFF860B9607A6097
:10AD4000FA68A123DB00B968D150FA68A223DB00BE
:10AD50007968D150C046BD4604B080BD80B582B090
:10AD600000AF78607A68A323DB00D358DBB2180009
:10AD7000BD4602B080BD000080B582B000AF7860F3
:10AD80000A00FB1C1A70FB1C1A787B6802495A5097
:10AD9000C046BD4602B080BD1C05000080B582B033
:10ADA00000AF78600A00FB1C1A70FB1C1B787A68E5
:10ADB000D31801221A60C046BD4602B080BD000013
:10ADC00080B582B000AF786008001100FB1C021C47
:10ADD0001A70BB1C0A1C1A70FA1CBB1C12781B7858
:10ADE0001343DBB219007B68024A9950C046BD4646
:10ADF00002B080BD6C05000080B582B000AF786005
:10AE000039607B6803493A685A50C046BD4602B073
:10AE100080BDC0462405000090B583B000AF7860C7
:10AE20000C0010001900FB1C221C1A70BB1C021C19
:10AE30001A707B1C0A1C1A70FB1C1A78BB1C1B782E
:10AE40005B001A437B1C1B789B001A431823FB18DA
:10AE50001B781B021A4311001C23FB181B781A04D1
:10AE6000A023DB0511437A68C132FF329200D15032
:10AE7000C046BD4603B090BD80B584B002AF7860D7
:10AE8000786800230193002300930023012201210D
:10AE9000FFF7C2FFC046BD4602B080BD80B584B09A
:10AEA00002AF78600A00FB1C1A70FB1C1B787868E4
:10AEB000002201920022009200220021FFF7ACFF45
:10AEC000C046BD4602B080BD80B582B000AF78609C
:10AED000A023DA0501217B689940A123DB00D15032
:10AEE000C046BD4602B080BD80B582B000AF78607C
:10AEF0007B681B681800FFF7BFFF7B681B681800A2
:10AF0000FFF7E2FF7B685B6800211800FFF7C6FFD0
:10AF10007B689B691A4A19001000FFF76DFF7B6878
:10AF2000597D7B681B7D16481A00FFF749FF7B6837
:10AF300019687B685B6812481A00FFF7E5FE7B68BA
:10AF40001B7D012B17D17B689B6800211800FFF740
:10AF5000A5FF7B68DB681800FFF78EFF7B68DB6866
:10AF60001800FFF7B1FF7B68D9687B689B680448CD
:10AF70001A00FFF7DFFEC046BD4602B080BDC046E6
:10AF80000020004080B582B000AF0200FB1D1A70A7
:10AF9000074A084B11001800FFF768FEFB1D1B78DD
:10AFA00019000220FFF71CFEC046BD4602B080BD5E
:10AFB000800002000020004080B500AF034B180065
:10AFC000FFF795FEC046BD4680BDC046002000404C
:10AFD00080B582B000AF78603960194B9B7D002B43
:10AFE00001D0082327E07B68002B01D1154B7B6043
:10AFF0007B681800FFF778FF114B3A685A607B684E
:10B000001A690F4B1A600E4B5B68002B04D07B68EB
:10B010001B7F1800FFF7B6FFFFF7CEFF084B00229B
:10B02000DA74074B00229A74054B01229A75044B7F
:10B0300000225A7500231800BD4602B080BDC046EC
:10B0400048230020441E020080B582B000AF8E234A
:10B050005B00104A19001000FFF7E4FD0E4B9B68DF
:10B060000D4A128A92B29A18FB1D12781A700A4B76
:10B070001B8A9BB201339AB2074B1A82FB1D1B78C5
:10B08000044A19001000FFF777FEC046BD4602B023
:10B0900080BDC046002000404823002080B584B019
:10B0A00000AF78600A00FB1C1A700023FB60384B6D
:10B0B0009B7C002B01D0112365E0354BFA1C1278E4
:10B0C0009A74334B7A689A60314B00221A828E232D
:10B0D0005B00304A19001000FFF7A4FD2D4B08213A
:10B0E0001800FFF75BFEFFF7AFFF294B5B68002BF3
:10B0F00048D11EE0C0468E235B00264A190010008E
:10B10000FFF7A1FD03001A0001235340DBB2002B1F
:10B1100006D01F4B1B8A9AB280235B009A42EAD169
:10B120001B4B1B8A9AB280235B009A4201D0FFF727
:10B130008BFF174B9B7C9AB2154B1B8A9BB29A4292
:10B14000D8D8134B1B8A9AB280235B009A4202D153
:10B150000F23FB6013E0C0468E235B000D4A1900ED
:10B160001000FFF770FD03001A0001235340DBB20B
:10B17000002BF1D1074B0C211800FFF70FFE044BF9
:10B1800000229A74FB681800BD4604B080BDC0461A
:10B190004823002000200040B0B500AF84235B00AE
:10B1A0000D4A19001000FFF73DFD0C4BDB680B4A00
:10B1B000127DD2B29C18084B1800FFF7CFFD030098
:10B1C0002370064B1B7DDBB20133DAB2034B1A75D9
:10B1D000C046BD46B0BDC046002000404823002008
:10B1E00080B500AF92235B00094A19001000FFF7F9
:10B1F00019FD84235B00064A19001000FFF712FDB9
:10B20000034B00211800FFF7C9FDC046BD4680BDB5
:10B2100000200040F0B585B000AF78600A00FB1C4C
:10B220001A70514BDB7C002B01D0112398E04E4B60
:10B23000FA1C1278DA744C4B7A68DA604A4B0022B6
:10B240001A75494B5B7D01225340DBB2002B01D0C4
:10B25000FFF7C6FF444B5B68002B00D078E00F235C
:10B26000FC1892235B00414A19001000FFF7EBFC29
:10B27000030023700E257C1984235B003B4A1900D0
:10B280001000FFF7E0FC030023700D26BC19A22379
:10B290005B00364A19001000FFF7D5FC030023704D
:10B2A0007B191B7801225340DBB2002B0ED0BB1957
:10B2B0001B7801225340DBB2002B07D00F23FB1871
:10B2C0001B7801225340DBB2002BC8D10F23FB189F
:10B2D0001B78002B0DD10D23FB181B78002B08D1F8
:10B2E000FFF75AFF204BDA7C1F4B1B7DDBB29A42E3
:10B2F000B5D8A2235B001D4A19001000FFF792FC8D
:10B3000092235B00194A19001000FFF78BFC164BC3
:10B310000022DA740F23FB181B78002B01D00323C3
:10B320001EE00D23FB181B78002B01D00F2317E024
:10B330000D4B5B7D002B05D00C4B00211800FFF757
:10B340002DFD0CE0094B04211800FFF727FD06E056
:10B3500081239B00054A19001000FFF787FC00239A
:10B360001800BD4605B0F0BD482300200020004075
:10B3700080B500AF074B5B7D01225340DBB2002B51
:10B3800004D0FFF72DFF034B01225A75C046BD467E
:10B3900080BDC0464823002080B586B000AF0200C3
:10B3A000FB1D1A7008203B1801221A703B18FA1D69
:10B3B00012781A72084BDA683B185A60064B002262
:10B3C000DA74054B5A68044B19683B18180090470B
:10B3D000C046BD4606B080BD4823002080B586B07B
:10B3E00000AF0200FB1D1A7008203B1800221A70E3
:10B3F0003B18FA1D12781A72084B9A683B185A606B
:10B40000064B00229A74054B5A68044B19683B1886
:10B4100018009047C046BD4606B080BD48230020B6
:10B4200080B584B000AF80239B00624A19001000F1
:10B43000FFF72AFC031E3FD092235B005D4A1900F0
:10B440001000FFF700FC031E36D092235B00594A20
:10B4500019001000FFF7E6FB81239B00554A1900F5
:10B460001000FFF723FC544B5B7D01225340DBB2FD
:10B47000002B04D04F4B04211800FFF78FFC3B003A
:10B4800002221A704B4B1800FFF71EFC02003B0013
:10B49000DA60494BDA7C3B001A72474BDA683B00B2
:10B4A0005A60454B0022DA74434B5A68424B196884
:10B4B0003B001800904731E03E4B04211800FFF795
:10B4C000E3FB031E2AD084235B003A4A19001000D4
:10B4D000FFF7B9FB031E21D0FFF75EFE364BDA7C87
:10B4E000354B1B7DDBB29A4218D1334B5B7D012279
:10B4F0005340DBB2002B04D02E4B04211800FFF781
:10B500004DFC81239B002B4A19001000FFF7CEFB56
:10B51000294B1B7DDBB21800FFF73EFF8E235B003B
:10B52000244A19001000FFF78EFB031E1AD0224B8D
:10B530009B7C9AB2204B1B8A9BB29A4202D9FFF79E
:10B5400083FD0FE08E235B001A4A19001000FFF7FD
:10B5500069FB194B9B7C002B04D0174B9B7C18007C
:10B56000FFF73CFFA2235B00124A19001000FFF70F
:10B570006AFB031E19D0A2235B000E4A19001000BB
:10B58000FFF750FB0C4B5B7D002B04D0094B0021D7
:10B590001800FFF703FC084BDB7C002B05D0064BA3
:10B5A0001B7DDBB21800FFF7F7FEC046BD4604B0B6
:10B5B00080BDC046002000404823002080B582B0F6
:10B5C00000AF0200FB1D1A70FB1D1B787F2B18D9E2
:10B5D000174AFB1D1B7819000F230B40083B9B08E3
:10B5E00006339B00D31804331A68FB1D1B7819001F
:10B5F00003230B40DB00DA4013009B0903221340B6
:10B6000012E00C4AFB1D1B785BB29B08C0339B0009
:10B610009A58FB1D1B78190003230B40DB00DA400E
:10B6200013009B09032213401800BD4602B080BDE1
:10B6300000ED00E000E100E080B582B000AF78608E
:10B640000A00FB1C1A70FB1C1B787A68D3180122B5
:10B650001A60C046BD4602B080BD80B582B000AF62
:10B6600078600A00BB1C1A80BB1C1B887A68D31840
:10B6700000221A60C046BD4602B080BD80B582B0CF
:10B6800000AF78600A00BB1C1A80BB1C1B887A685C
:10B69000D3181B685A1E9341DBB21800BD4602B096
:10B6A00080BD80B582B000AF786039607A68802351
:10B6B0009B00D2583B681A4311007A6880239B0094
:10B6C000D150C046BD4602B080BD80B582B000AF4B
:10B6D000786039607A6880239B00D3583A68D243F7
:10B6E0001A4011007A6880239B00D150C046BD46A5
:10B6F00002B080BD80B582B000AF786039607A68F2
:10B70000C1239B003968D150C046BD4602B080BD00
:10B7100080B582B000AF786039607A68C2239B0040
:10B720003968D150C046BD4602B080BD80B582B0F8
:10B7300000AF786039607B6803493A685A50C04668
:10B74000BD4602B080BDC0462405000080B584B06F
:10B7500000AF78607B68064A9B58FB607B680449B1
:10B76000FA685A50FB681800BD4604B080BDC04658
:10B77000C404000080B582B000AF78607A68A0236E
:10B78000DB000521D150C046BD4602B080BD00009F
:10B7900080B584B000AFF860B9607A60FA68A12320
:10B7A000DB00B968D150FB6803497A685A50C0463B
:10B7B000BD4604B080BDC0460C05000080B582B017
:10B7C00000AF78607A68A323DB00D358DBB218009F
:10B7D000BD4602B080BD000080B582B000AF786089
:10B7E0000A00FB1C1A70FB1C1A787B6802495A502D
:10B7F000C046BD4602B080BD1C05000080B582B0C9
:10B8000000AF78600A00FB1C1A70FB1C19787A687C
:10B81000B123DB00D150C046BD4602B080BD36DF4B
:10B820007047C046180037DF7047C0461800000058
:10B8300080B582B000AF0C4B5B68DB05DB0D7B6035
:10B840007B68002B0AD07B68103B3B603B685BB297
:10B850001800FFF7B3FE0300DBB200E0042318007A
:10B86000BD4602B080BDC04600ED00E080B582B0AC
:10B8700000AF7860A023DA0501217B689940A123FD
:10B88000DB00D150C046BD4602B080BD80B582B05D
:10B8900000AF7860A023DB0501217A6891400A009F
:10B8A00002495A50C046BD4602B080BD0C0500009A
:10B8B00080B582B000AF7860A023DA05A223DB0058
:10B8C000D2587B68DA401300012213401800BD46AD
:10B8D00002B080BD90B587B000AF78600A00FB1C55
:10B8E0001A701323FB1800221A707B685B7918000A
:10B8F00012243A19284903005B001B18DB00CB18FF
:10B9000001331B7813703B191A78244B9200D358DB
:10B91000FB6000237B6130E07B69DB00FA68D318B1
:10B920001B78FA1C12789A4224D17B69DB00FA68F2
:10B93000D3187A68527911005878174A0B005B00C7
:10B940005B18DB00D3180133021C1A707B69DB0023
:10B95000FA68D3185B68002B07D07B69DB00FA68B4
:10B96000D3185B687A68100098471323FB180122EC
:10B970001A700CE07B6901337B611223FB181A7883
:10B98000074B9200D3587A699A42C5D3C046C04645
:10B99000BD4607B090BDC04668230020D0210020DE
:10B9A000FC1E020080B586B000AF78607B685B79D2
:10B9B0001A0013005B009B18DB00324A9B1804330B
:10B9C0003B617B681B6803211800FFF77EFE3B6923
:10B9D0005B8901333A691289934235D13B695B78BF
:10B9E00001225340DBB2002B2ED002237B613B6946
:10B9F00082225200DA817B681A683B69DB89190070
:10BA00001000FFF72AFE7B685B791A001E4B92003C
:10BA1000D358002B12D07B681A683B691B69190048
:10BA20001000FFF775FE3B6902221A617B681A68F5
:10BA30003B691B6919001000FFF75CFE7B6804215D
:10BA40001800FFF747FF01E001237B617B681B685B
:10BA50007A6911001800FFF724FE0F217B183A695C
:10BA6000127B1A703B6920221A737B681A687B1854
:10BA70001B7819001000FFF7DFFDC046BD4606B079
:10BA800080BDC046682300206023002080B584B0BC
:10BA900000AF78607B685B791A0013005B009B182D
:10BAA000DB00224A9B180433FB607B681A68FB6842
:10BAB000DB7819001000FFF7A1FE7B681B682021CE
:10BAC0001800FFF7B9FDFB6808221A73FB688E2285
:10BAD0005200DA817B681A68FB68DB891900100064
:10BAE000FFF7BBFD7B685B791A00114B9200D358BE
:10BAF000002B12D07B681A68FB681B6919001000C4
:10BB0000FFF706FEFB6880221A617B681A68FB68F3
:10BB10001B6919001000FFF7EDFD7B68180000F0AD
:10BB20009BF8C046BD4604B080BDC04668230020D7
:10BB30006023002080B584B000AF78607B685B79BB
:10BB40001A0013005B009B18DB00224A9B18043389
:10BB5000FB607B681A68FB68DB7819001000FFF750
:10BB60004DFE7B681B6820211800FFF765FDFB6810
:10BB700000221A73FB6884225200DA817B681A68FB
:10BB8000FB68DB8919001000FFF767FD7B685B79B4
:10BB90001A00114B9200D358002B12D07B681A6800
:10BBA000FB681B6919001000FFF7B2FDFB68042257
:10BBB0001A617B681A68FB681B6919001000FFF79F
:10BBC00099FD7B68180000F009F8C046BD4604B036
:10BBD00080BDC046682300206023002080B582B06D
:10BBE00000AF78607B681800FFF7DCFEC046BD46FA
:10BBF00002B080BD90B585B000AF78607B685B799E
:10BC00001A0013005B009B18DB00124A9B180433D8
:10BC1000FB607B681968FB685B68FA6852899C184E
:10BC20000800FFF7CBFD03002370FB685B8901333D
:10BC30009AB2FB685A81FB685A89FB681B899A4251
:10BC400003D27B681800FFF7C9FFC046BD4605B0A8
:10BC500090BDC0466823002080B584B000AF7860F6
:10BC60007B685B791A0013005B009B18DB000B4AB2
:10BC70009B180433FB607B681868FB685B68FA6894
:10BC800052899B181B781900FFF7A6FD7B681800E6
:10BC9000FFF788FEC046BD4604B080BD6823002083
:10BCA00080B584B000AF78607B685B791A001300C0
:10BCB0005B009B18DB000C4A9B180433FB60FB689D
:10BCC0005B8901339AB2FB685A81FB685A89FB6829
:10BCD0001B899A4203D27B681800FFF7BDFFC0465C
:10BCE000BD4604B080BDC0466823002080B584B046
:10BCF00000AF78607B685B791A0013005B009B18CB
:10BD0000DB001D4A9B180433FB60FB688222520053
:10BD1000DA817B681A68FB68DB8919001000FFF77D
:10BD20009CFC7B685B791A00144B9200D358002B63
:10BD300012D07B681A68FB681B6919001000FFF7B6
:10BD4000E7FCFB6802221A617B681A68FB681B69C2
:10BD500019001000FFF7CEFC7B681B68202118003B
:10BD6000FFF76AFC7B681B6814211800FFF764FC6E
:10BD7000C046BD4604B080BD68230020602300207B
:10BD800080B584B000AF78607B685B791A001300DF
:10BD90005B009B18DB00054A9B180433FB60FB68C3
:10BDA00001229A70C046BD4604B080BD68230020C1
:10BDB000F0B587B000AF786000237B617B685B796A
:10BDC0001A0013005B009B18DB00244A9B18043305
:10BDD0003B617B681A683B69DB890F26BC19190037
:10BDE0001000FFF74BFC030023707B681B680E25D7
:10BDF0007C199222520011001800FFF73FFC03004B
:10BE000023707B6901337B617B69154A9A429B41B0
:10BE10005B42DBB21A007B191B781A437B19511E57
:10BE20008A411A707A19BB1912781B781343DBB256
:10BE300001225340DBB2002BCBD17B191B785A1E59
:10BE40009341DBB201225340DBB21A1C01231340A1
:10BE5000DBB21800BD4607B0F0BDC0466823002025
:10BE6000FE0F000080B588B000AF78603960A02375
:10BE7000DA053B681B68C133FF339B004F4999507B
:10BE8000A023DA053B685B68C133FF339B004B4955
:10BE900099503B681B681800FFF7E8FC3B685B683B
:10BEA0001800FFF7E3FCA023DA053B681B68C133E9
:10BEB000FF339B0042499950A023DA053B685B6839
:10BEC000C133FF339B003E49995004237B617B695A
:10BED00018000138C046C046C046C046C046C046ED
:10BEE000C046C046C046C046C046C046F1D1C04666
:10BEF0000023FB613DE03B685B681800FFF7D8FC5E
:10BF0000031E03D0FB69002B37D154E03B681B684C
:10BF10001800FFF7BBFC04233B613B6918000138A4
:10BF2000C046C046C046C046C046C046C046C046E1
:10BF3000C046C046C046C046F1D1C0463B681B68FB
:10BF40001800FFF793FC0423FB60FB68180001381E
:10BF5000C046C046C046C046C046C046C046C046B1
:10BF6000C046C046C046C046F1D1C046FB69013359
:10BF7000FB61FB69082BBEDD00E0C0463B685B68E7
:10BF80001800FFF783FC0423BB61BB69180001386C
:10BF9000C046C046C046C046C046C046C046C04671
:10BFA000C046C046C046C046F1D1C0463B685B684B
:10BFB0001800FFF75BFCBD4608B080BD0C06000012
:10BFC0000D06000090B58FB000AFF8607A603B605E
:10BFD0000B23FB180A1C1A70FB685B791A0013000C
:10BFE0005B009B18DB006B4A9B183B633723FB18F5
:10BFF00000221A7017243B1900221A70FFF718FC50
:10C000000300FB62FB6A012B15D03B191800FFF7F8
:10C0100006FC0300BB62BB6A022B01D172B60AE0C8
:10C02000BB6A7B627B6A002B05D07B6A0022002101
:10C030001800FEF7E9FA3B6B9B78DBB2002B04D0CB
:10C040003723FB1801221A7002E03B6B01229A7021
:10C05000FB6A012B17D062B6C0461723FB181B786A
:10C060001800FFF7E0FB03003B623B6A022B0AD09B
:10C070003B6AFB61FB69002B05D0FB6900220021B4
:10C080001800FEF7C1FA3723FB181B78002B01D0EC
:10C0900011237BE03B6B0433BB61BB690B22BA18F5
:10C0A0001278DA703B689AB2BB691A81BB697A6808
:10C0B0005A60BB6900225A81BA69402308218C4624
:10C0C000BC4463441B785370BB69442208218C46EE
:10C0D000BC44624412781A70BB6900229A70BB6932
:10C0E0001B7801225340DBB21A00FB6811001800D4
:10C0F000FFF7F0FBFB685B791A00274B9200D358DF
:10C10000002B42D1BB691B78002B01D0022200E03A
:10C1100003223623FB181A70FB681800FFF748FE4D
:10C1200003001A0001235340DBB2002B0BD0FB6845
:10C130001B689222520011001800FFF78EFA362376
:10C14000FB1805221A70FB681A68BB69DB891900A5
:10C150001000FFF782FA3623FB181A78FB681100EB
:10C160001800FFF7B7FBBB699B78002B04D03B6B33
:10C1700000229A70032309E0BB695A89BB691B89B5
:10C180009A42C9D33B6B00229A7000231800BD4627
:10C190000FB090BD682300206023002080B584B0DC
:10C1A00000AFF860B9607A603B60FB685B791900AA
:10C1B000384A0B005B005B18DB009B5C002B01D056
:10C1C000082362E0BB68002B05D1FB685B791A018C
:10C1D000314BD318BB60FB685B791A002F4B920080
:10C1E0007968D150FB685B791A002D4B9200396851
:10C1F000D150FB685B791A002A4B9200F968D15044
:10C20000BA68FB6811001800FFF72CFEA023DA05BE
:10C21000BB681B68C133FF339B0023499950A0239F
:10C22000DA05BB685B68C133FF339B001E49995038
:10C23000FB681A68BB689B6819001000FFF776FA64
:10C24000FB681868BB681968BB685B681A00FFF771
:10C250009FFAFB685B791A00104B9200D358002BB1
:10C2600008D0FB6804229A56BB681B7B190010009B
:10C27000FEF7B6FCFB685B791900064A0B005B0011
:10C280005B18DB000121995400231800BD4604B05F
:10C2900080BDC04668230020641E02006023002089
:10C2A00064230020802300200C06000080B582B0AB
:10C2B00000AF78607B681B68822252001100180072
:10C2C000FFF7CBF97B681B6884225200110018002D
:10C2D000FFF7C3F97B681B688E225200110018001B
:10C2E000FFF7BBF97B681B6892225200110018000F
:10C2F000FFF7B3F97B685B791A00164B9200D358AD
:10C30000002B07D07B681B68802292001100180068
:10C31000FFF7F0F97B681B681800FFF72BFA7B68C2
:10C320005B7919000C4A0B005B005B18DB000221F3
:10C3300099547B685B791900074A0B005B005B1816
:10C34000DB00D318013300221A70C046BD4602B08C
:10C3500080BDC046602300206823002090B587B0D0
:10C3600002AFF8607A603B600B203B180A1C1A7021
:10C370003C687A683B181978F868012301932023F8
:10C38000FB181B7800932300FFF71CFE0300180026
:10C39000BD4605B090BD90B587B002AFF8607A6039
:10C3A0003B600B203B180A1C1A703C687A683B18EB
:10C3B0001978F868002301932023FB181B78009359
:10C3C0002300FFF7FFFD03001800BD4605B090BD38
:10C3D000F0B58FB000AF786039603A6813005B0049
:10C3E0009B18DB005E4A9B183B633B6B0433FB628C
:10C3F0002B257C1992235A007B6811001800FFF747
:10C400003DF903002370FB6ADA892A26BC197B6890
:10C4100011001800FFF732F90300237092235A002D
:10C420007B6811001800FFF718F98E235A007B680B
:10C4300011001800FFF711F984235A007B681100DE
:10C440001800FFF70AF982235A007B6811001800D0
:10C45000FFF703F97B191B78002B04D1BB191B785C
:10C46000002B00D177E02B23FB181B78002B04D086
:10C470003723FB1805221A7009E0FB6A1B78002B92
:10C4800001D0022200E003223723FB181A70354B3B
:10C490003A689200D2583723FB181B781900100015
:10C4A000FFF718FAFB6A9B78002B29D03B6B002220
:10C4B0009A7018217B1802221A70FB6A5A687B183E
:10C4C0005A60FB6A5B891A007B189A607B681800C7
:10C4D000FFF73CF903000222134001D0022200E0E2
:10C4E000042218203B181A731F4B3A689200D35845
:10C4F0001E4A3968890089583A18100098472AE07E
:10C50000FB6A5A89FB6A1B899A4224D33B6B00223F
:10C510009A7008243B19180010231A000021FBF719
:10C5200069FEFB6A1B781A0020003B181A70FB6A30
:10C530005A683B185A60FB6A5B891A003B189A607C
:10C54000094B3A689200D358084A396889008958DB
:10C550003A1810009847C046BD460FB0F0BDC0461F
:10C560006823002080230020602300206423002013
:10C5700080B500AF034B00211800FFF729FFC0462C
:10C58000BD4680BD0030004090B585B002AF7860F8
:10C5900039607B681B78022B1AD025DC002B1FD05A
:10C5A000012B21D1134B1B78002B0DD0124B186897
:10C5B000124B1978124B1A68124B1B781C0000237F
:10C5C00000932300FFF7E7FE0F4B00221A700CE0E8
:10C5D0000E4B180004F04CFD064B00221A7004E0CC
:10C5E000044B00221A7000E0C046C046BD4603B0AE
:10C5F00090BDC04688230020842300209023002083
:10C600008C2300208A23002089230020101F020091
:10C61000B0B588B000AF786008217B18124A31CAE3
:10C6200031C312681A60114B7A681A600F4B186890
:10C630000F4A79180023FFF7B1FD0300FB61FB6986
:10C64000BB61BB69002B05D00A4ABB6944211800B5
:10C65000FDF7DAFF054B1B681800FFF727FEC04601
:10C66000BD4608B0B0BDC046501F02008423002064
:10C6700089C501002C1F020090B587B002AF396058
:10C680001100FB1D021C1A70BB1D0A1C1A70124BF4
:10C6900001221A70114B1868BB1D1C783A68FB1DEB
:10C6A0001978002300932300FFF758FE0300FB6076
:10C6B000C046094B1B78002BFBD1FB68BB60BB68F5
:10C6C000002B05D0064ABB6858211800FDF79CFFD7
:10C6D000C046BD4605B090BD8923002084230020BC
:10C6E0002C1F020090B587B002AF040008003A602A
:10C6F0001900FB1D221C1A70BB1D021C1A707B1D29
:10C700000A1C1A70164B01221A70164BFA1D127869
:10C710001A70154B3A681A60144B7A1D12781A7009
:10C72000134B1868BA1DFB1D1978002300930123D1
:10C73000FFF714FE0300FB60C046094B1B78002B7B
:10C74000FBD1FB68BB60BB68002B05D0094ABB6806
:10C750006C211800FDF758FFC046BD4605B090BDDE
:10C7600088230020902300208C2300208A2300208F
:10C77000842300202C1F020080B500AF074B20222D
:10C780001A70064B27225A70044B022219001920F6
:10C79000FFF772FFC046BD4680BDC046942300200F
:10C7A00090B585B000AF78600823FB184D4A11683A
:10C7B000196092889A80C04600F09CF803001A0025
:10C7C00001235340DBB2002BF6D108243A1906238B
:10C7D000A8211920FFF786FF3B1900229B5E9B11C1
:10C7E0001BB2180000F0A2F8021C7B681A603B190B
:10C7F000023300229B5E9B111BB2180000F096F8DA
:10C80000021C7B685A603B19043300229B5E9B111B
:10C810001BB2180000F08AF8021C7B689A60324B49
:10C820001B78002B59D07B681A682F4B5B68191C4A
:10C83000101C02F003FB031C2C49181C02F0E4F945
:10C84000031C1A1C284BDB68191C101C02F012F880
:10C85000031C2749181C02F0F1FA031C1A1C7B6800
:10C860001A607B685A68204B1B69191C101C02F067
:10C87000E5FA031C1D49181C02F0C6F9031C1A1C1A
:10C88000194B9B69191C101C01F0F4FF031C18497B
:10C89000181C02F0D3FA031C1A1C7B685A607B68D0
:10C8A0009A68114BDB69191C101C02F0C7FA031CB3
:10C8B0000E49181C02F0A8F9031C1A1C0A4B5B6AEB
:10C8C000191C101C01F0D6FF031C0949181C02F0AA
:10C8D000B5FA031C1A1C7B689A60C046BD4605B0B9
:10C8E00090BDC046601F020098230020CDCC9C4123
:10C8F000CDCC1C4180B582B000AFFB1D00221A7068
:10C90000FA1D012327211920FFF7ECFEFB1D1B78E0
:10C9100008221340DAB2FB1D1A70FB1D1B785A1E49
:10C920009341DBB21800BD4602B080BD80B582B035
:10C9300000AF0200BB1D1A80BB1D00229B5E1800C9
:10C9400002F044FC031C0949181C02F05DF9031CA9
:10C950000749181C01F08EFF031C0649181C02F041
:10C9600053F9031C181CBD4602B080BD9A9979404A
:10C9700000007A44CDCC1C41B0B584B000AFF86063
:10C98000B960FB681B68181C04F07EFA04000D00F7
:10C99000FB685B68181C04F077FA02000B001000BB
:10C9A000190000F0D7FB38607960FB689B68181CA1
:10C9B00004F06AFA02000B001000190000F0CAFB34
:10C9C00002000B003868796802F046FC02000B0098
:10C9D0001000190000F086FD02000B002000290065
:10C9E00002F0A4FF02000B001000190000F012FA80
:10C9F0000022584B03F0A0FB02000B0010001900AE
:10CA0000554A564B02F092FF02000B00100019002D
:10CA100004F082FA021CBB681A60FB685B68181C91
:10CA200004F032FA04000D00FB681B68181C04F0C7
:10CA30002BFA02000B001000190000F08BFB38608D
:10CA40007960FB689B68181C04F01EFA02000B005A
:10CA50001000190000F07EFB02000B0038687968B6
:10CA600002F0FAFB02000B001000190000F03AFD82
:10CA700002000B002000290002F058FF02000B000A
:10CA80001000190000F0C6F90022324B03F054FBED
:10CA900002000B00100019002F4A304B02F046FF35
:10CAA00002000B001000190004F036FA021CBB68EB
:10CAB0005A60FB681B68181C04F0E6F902000B00C2
:10CAC0001000190000F046FB04000D00FB685B68D5
:10CAD000181C04F0D9F902000B001000190000F036
:10CAE00039FB02000B002000290002F0B5FB020018
:10CAF0000B001000190000F0F5FC04000D00FB68AD
:10CB00009B68181C04F0C0F902000B0020002900EB
:10CB100002F00CFF02000B001000190000F07AF97F
:10CB200000220C4B03F008FB02000B001000190060
:10CB3000094A0A4B02F0FAFE02000B00100019002D
:10CB400004F0EAF9021CBB689A60C046BD4604B016
:10CB5000B0BDC04600806640182D4454FB210940FA
:10CB600080B500AF104B00221A700F4B0F4A5A606D
:10CB70000D4B0E4A1A610C4B0C4ADA610A4B0C4AF7
:10CB80009A60094B0A4A5A61074B094A1A62064BD6
:10CB9000084ADA60044B074A9A61034B054A5A6215
:10CBA000C046BD4680BDC04698230020CDCC1CC1E8
:10CBB000CDCC1C41CDCC9C41B0B596B00AAF7C4BDE
:10CBC00000225A607A4B00221A61794B0022DA6106
:10CBD000774B00229A60764B00225A61744B0022F8
:10CBE0001A62734B0022DA60714B00229A61704B1B
:10CBF00000225A626F4B180004F03AFA6E4B18008C
:10CC000004F036FA0023FB62A0E020243B19180050
:10CC1000FFF7C6FD3B191A68654B5B68191C101CB1
:10CC200001F000FE031E03D03B191A68604B5A60E6
:10CC300020243B195A685E4B1B69191C101C01F01B
:10CC4000F1FD031E03D03B195A68594B1A61202489
:10CC50003B199A68564BDB69191C101C01F0E2FD68
:10CC6000031E03D03B199A68514BDA6120243B190B
:10CC70001A684F4B9B68191C101C01F0E7FD031E3E
:10CC800003D03B191A684A4B9A6020243B195A6812
:10CC9000474B5B69191C101C01F0D8FD031E03D023
:10CCA0003B195A68424B5A6120243B199A68404B01
:10CCB0001B6A191C101C01F0C9FD031E03D03B198F
:10CCC0009A683B4B1A623A4B5B68181C04F0DCF81C
:10CCD000B861F961364B9B68181C04F0D5F8040064
:10CCE0000D00334B1B69181C04F0CEF838617961D4
:10CCF0002F4B5B69181C04F0C7F8B860F9602C4B27
:10CD0000DB69181C04F0C0F838607960284B1B6A96
:10CD1000181C04F0B9F802000B0028490892099386
:10CD20003A687B6806920793BA68FB680492059399
:10CD30003A697B690292039300940195BA69FB6991
:10CD4000080004F095F9FB6A0133FB62FA6A962346
:10CD50005B009A4200DA58E7154B9A68144B5B68FF
:10CD6000191C101C02F06AF8031C1A1C104BDA6024
:10CD70000F4B5A690E4B1B69191C101C02F05EF810
:10CD8000031C1A1C0A4B9A61094B1A6A084BDB698F
:10CD9000191C101C02F052F8031C1A1C044B5A6296
:10CDA000034B01221A70C046BD460CB0B0BDC04650
:10CDB00098230020681F0200841F0200B01F020099
:10CDC00003210A4802680A430260094802680A43CC
:10CDD00002600849084A094B9B1A03DD043BC85806
:10CDE000D050FBDC06488047064800472405004039
:10CDF00054050040FC21020000200020F02100200A
:10CE000099A0010009810100FEE7FEE7FEE7FEE7C9
:10CE1000FEE7FEE7F8B54E4657464546DE46A44BCC
:10CE2000E0B54E00804689468A4676089E420CDD73
:10CE3000A04B9E4200DDA3E000D19EE05346002BB4
:10CE400000DCE1E09C4B9D4AA2E09D4B9E4200DD50
:10CE5000B4E09C4B9E4200DCA2E001235B429B4677
:10CE600042464B464046494603F066F902000B0035
:10CE700006000F0003F060F904000D00924A934B86
:10CE800003F05AF9924A934B02F0E6F922002B0084
:10CE900003F052F9904A914B02F0DEF922002B0088
:10CEA00003F04AF98E4A8F4B02F0D6F922002B008C
:10CEB00003F042F98C4A8D4B02F0CEF922002B0090
:10CEC00003F03AF98A4A8B4B02F0C6F932003B0074
:10CED00003F032F9884A894B06000F002000290030
:10CEE00003F02AF9864A874B03F092FB22002B00BD
:10CEF00003F022F9844A854B03F08AFB22002B00C1
:10CF000003F01AF9824A834B03F082FB22002B00C4
:10CF100003F012F9804A814B03F07AFB22002B00C8
:10CF200003F00AF90B0059460200013100D16EE00E
:10CF300059463000CC00390002F08EF942464B468B
:10CF400003F0FAF8764D774B2D191C1922686368A7
:10CF500003F05EFB42464B4603F05AFB02000B0017
:10CF60002868696803F054FB030050460A00002853
:10CF70000EDA802212068A180AE0002800D15DE746
:10CF800042464B464046494602F066F903000A0015
:10CF9000180011003CBC90469946A246AB46F8BD2D
:10CFA000614A624B02F058F90022614B01F014FC17
:10CFB000002800D151E743464A46E9E700F0C6F8A9
:10CFC0005C4B04000D009E4232DC5B4B9E4258DC01
:10CFD00002000B0002F040F90022554B03F018FB51
:10CFE000802306000F000022DB052000290002F04C
:10CFF00033F90B0002003900300002F097FC0023E7
:10D00000804689469B462BE72B4B4C4AC0E73000B5
:10D01000390002F021F942464B4603F08DF8020038
:10D020000B004046494603F0F3FA03000A00AFE75D
:10D03000434B9E421ADC0022424B03F0E9FA0022E5
:10D0400006000F003F4B2000290003F075F8002276
:10D05000374B02F001F90B0002003900300002F0FA
:10D0600065FC0223804689469B46F9E60B000200D8
:10D070003549002002F05AFC0323804689469B462E
:10D08000EEE600222A4B03F0C3FA002206000F004E
:10D09000274B2000290002F0DFF80B0002003900C6
:10D0A000300002F043FC0123804689469B46D7E6C8
:10D0B000FFFF0F440000F07F182D4454FB21F93F7F
:10D0C000FFFFDB3FFFFF1F3E11DA22E33AAD903F47
:10D0D000EB0D76244B7BA93F513DD0A0660DB13FAF
:10D0E0006E204CC5CD45B73FFF8300922449C23F17
:10D0F0000D5555555555D53F2F6C6A2C44B4A2BFDC
:10D100009AFDDE522DDEAD3F6D9A74AFF2B0B33FA3
:10D11000711623FEC671BC3FC4EB98999999C93F1B
:10D12000E01F0200002002009C7500883CE4377E6E
:10D130000000F03FFFFFF23FFFFFE53FFB21F9BF9B
:10D14000FF7F03400000F83F0000F0BF4B0059088C
:10D150007047C0460B00802110B50200C9050020B1
:10D1600000F002F810BDC046F0B5DE4657464E4608
:10D170004546E0B58DB01D0006000F00140000F01C
:10D1800015FAD04B009001911B785BB29B4601339E
:10D190003ED022002B002000290003F0CBFD814669
:10D1A000002835D132003B003000390003F0C2FDC9
:10D1B00000228046002800D0A1E000233000390082
:10D1C00001F0F0FA00282CD00022002320002900D2
:10D1D00001F0E8FA814600285FD002AB9A460123AD
:10D1E00052460293B84B5360534642461C615D6100
:10D1F0001A62002452469E60DF6000239361D4616E
:10D200005B46002B00D19AE00023B04C00930194C0
:10D21000009801990DB03CBC90469946A246AB4699
:10D22000F0BD0098019901F005F88046002800D172
:10D2300099E0009801990022002301F0B3FA002838
:10D24000E6D03000390000F0F5FF0028E0D02000E3
:10D25000290000F0EFFF0028DAD002AB9A46042341
:10D2600052460293984B1461556153600023002489
:10D27000136200239361D461924B9660D7601B7850
:10D280005BB2022B04D0504600F0DEFF00285BD1D9
:10D2900003F0E8FE2223036056E02000290000F09E
:10D2A000C9FF0028B4D0002200232000290001F08B
:10D2B0007FFA0028ACD002AB9A4601235246029373
:10D2C000814B536053464A469E60DF601C615D613E
:10D2D0001A627C4B1B785BB2002B00D083E0524675
:10D2E000002300249361D461504600F0ADFF002874
:10D2F00000D180E053461B6A002B2ED028E000238B
:10D300002000290001F04EFA002800D180E702AB8E
:10D310009A460123524602936B4B002053605346BA
:10D320004A466A499E60DF601C615D619861D9610F
:10D330001A625B4600900191022B00D168E75046CB
:10D3400000F082FF00285BD053461B6A002B04D0FC
:10D3500003F088FE53461B6A03605346DC699B69F1
:10D360000093019454E73000390000F063FF002877
:10D3700000D15EE72000290000F05CFF002800D10A
:10D3800057E7009801990B00020003F0D3FC02ABB1
:10D390009A46002878D10323524602934A4B96605E
:10D3A000D7605360474B146155611B7810625BB2C4
:10D3B0009846002B29D1E0225146454B12068A613E
:10D3C000CB61300000220023390001F0F1F9002880
:10D3D0002CD1504600F038FF00288BD103F042FEDC
:10D3E0002223036086E7002052463A499061D161CA
:10D3F000022B00D078E703F035FE2123036079E7A4
:10D4000003F030FE212303609EE700225146324B99
:10D4100030008A61CB6100220023390001F0C8F995
:10D4200000281ED14346022BD8D0D2E700222B4B36
:10D430002000290002F080FE04000D0000F00CFF27
:10D4400022002B0001F0AEF9002805D1E022244B88
:10D45000120651468A61CB611A4B1B785BB2984623
:10D46000E0E700221D4B2000290002F065FE0400C9
:10D470000D0000F0F1FE22002B0001F093F90028CE
:10D48000EAD10022134BE4E70123524602930E4BEC
:10D490005360534642461C615D6100249E60DF601C
:10D4A0001A62084B1C57002C00D118E700230022F9
:10D4B0001900100002F03AFA53469861D961022C23
:10D4C00099D011E7E4210020202002000000F03F65
:10D4D000FFFFEF470000F0FF0000F07F0000E03F9B
:10D4E000FFFFEFC7F0B5CE46474680B58DB00400CC
:10D4F0000D0000F0C7FD2B4B06001B780F005BB240
:10D500009946013310D022002B002000290003F09F
:10D5100011FC8046002807D10022002320002900AA
:10D5200001F046F9002806D1300039000DB00CBCDE
:10D5300090469946F0BD012302931B4B0694079534
:10D54000039343460A934B4604940595002B15D04C
:10D55000002300221900100002F0E8F94B46089061
:10D560000991022B0ED103F07DFD212303600A9B5C
:10D570000193002B0FD1089E099FD5E700230024BB
:10D580000893099402A800F05FFE0028EBD00A9BE4
:10D590000193002BEFD003F065FD0A9B019303601C
:10D5A000E9E7C046E421002024200200F0B545460A
:10D5B00057464E46DE461C001300E0B5650093B0AA
:10D5C0006D080293039407000E00A0462B4335D04C
:10D5D0007A4B4C008A46814664089C4229DC3AD04A
:10D5E0009D4226DC754B9D4221D000239B4653462D
:10D5F000002B3ADB002A56D1704B9D4200D1A4E0AB
:10D600006F4B9D4200D1B6E08023DB05984501D1E8
:10D6100000F08AFC6B4B984545D15346002B42DB0A
:10D620003800310000F02EFD009001910AE0002A40
:10D63000DBD0654B9C466444274310D10023604CEB
:10D64000009301940098019913B03CBC9046994610
:10D65000A246AB46F0BD002801D1A542C2DD5B4821
:10D6600000F0F4FD00900191ECE7594B9D4200DD84
:10D6700092E0584B9D4214DD57492B158C4663446C
:10D68000142B01DC00F061FC3421CB1A0299D94043
:10D6900008009840904204D10123194001335B1ADD
:10D6A0009B46002AACD038003100FFF74FFD4B46B7
:10D6B00000900191002B29D1002C04D0404AB300E6
:10D6C0009B08934222D14346002B07DA009A019B24
:10D6D00000203B4902F02AF9009001915346002BAB
:10D6E000B0DA394B9C465B4664441C4301D000F0E1
:10D6F00058FC0098019902000B0002F089FF02001B
:10D700000B0002F013F9009001919BE7F30F013B2E
:10D7100099465B464A4613434BD0304B9D4265DDEC
:10D720002F4B9D4200DC9BE32A4B9C4201DC00F026
:10D7300005FC4346002B19DD2A4A2B4B100019002B
:10D7400002F0FAFC009001917CE71F4BE3181F43A5
:10D7500000D173E71F4B9C4200DC72E3029B039CE9
:10D76000009301944346002B00DB6BE70023002469
:10D770000093019466E7320039004346009101921C
:10D78000002B00DB5EE733003A0000200C4902F07A
:10D79000CDF80090019155E702239B462AE7380017
:10D7A0003100FFF7D3FC4B4600900191002B00D1D4
:10D7B00082E73A003300380031009EE70000F07F36
:10D7C0000000F03F0000E03F000010C028200200F1
:10D7D000FFFF3F43FFFFEF3F01FCFFFF0000E04181
:10D7E0000000F0439C7500883CE4377EEA4B002241
:10D7F00033420AD1009801990022E84B02F09CFCC8
:10D8000035220C00009001915242E54923158C46C7
:10D8100063449A462403E34B240B23439846E24B8C
:10D8200092449C420ADDE14B9C4201DC00F00CFC7E
:10D8300001239C46DE4BE2449C46E0440023002446
:10D840000A930B941093119400230F930023D54C4B
:10D850000693079400980199069A079B4146040095
:10D8600002F0D6FE069A079B454606000F002000F0
:10D8700041460894099501F0EFFC02000B000020DE
:10D88000C84902F053F803000C0002000C930D94F9
:10D8900030000B00390002F04FFC00224346040028
:10D8A00010005A1080239B05134380220D001203A1
:10D8B00094460494059500240F9A63449D182B0008
:10D8C00022000090019102F037FC02000B003000B2
:10D8D000390002F09DFE069A079B06000F0020000B
:10D8E000290002F095FE02000B000898099902F049
:10D8F0008FFE009A019B02F01FFC02000B0030001B
:10D90000390002F085FE0C9A0D9B02F015FC049C78
:10D91000059D0690079122002B002000290002F0AF
:10D920000BFC06000F00A34AA34B02F005FCA34A20
:10D93000A34B01F091FC32003B0002F0FDFBA14A39
:10D94000A14B01F089FC32003B0002F0F5FB9F4A3D
:10D950009F4B01F081FC32003B0002F0EDFB9D4A41
:10D960009D4B01F079FC32003B0002F0E5FB9B4A45
:10D970009B4B01F071FC320004000D003B003000B5
:10D98000390002F0D9FB02000B002000290002F050
:10D99000D3FB009E019F04000D00049805993200FE
:10D9A0003B0001F059FC069A079B02F0C5FB2200E0
:10D9B0002B0001F051FC32003B000890099130002F
:10D9C00039000096019702F0B7FB0022854B040056
:10D9D0000D0001F041FC089A099B01F03DFC002676
:10D9E0000F0032000B000098019902F0A5FB002205
:10D9F000009001917B4B3000390002F009FE2200BB
:10DA00002B0002F005FE02000B000898099902F0B5
:10DA1000FFFD049A059B02F08FFB320004000D000D
:10DA2000069807993B0002F087FB02000B002000DC
:10DA3000290001F011FC04000D0002000B00009809
:10DA4000019901F009FC0026E0223000664B120625
:10DA50000F0002F071FB009A019B049005913000C9
:10DA6000390002F0D5FD02000B002000290002F071
:10DA7000CFFD5E4A5C4B02F05FFB5D4A04000D0087
:10DA8000300039005B4B02F057FB02000B00200016
:10DA9000290001F0E1FB109A119B01F0DDFB06006B
:10DAA00050460F0003F09AF904000D000498059900
:10DAB00032003B0001F0D0FB0A9A0B9B01F0CCFB3B
:10DAC00022002B0001F0C8FB002022002B00009058
:10DAD000019102F09DFD0A9A0B9B02F099FD049AB8
