:020000021000EC
:1080000000400020C9830100118401001384010095
:108010000000000000000000000000000000000060
:1080200000000000000000000000000015840100B6
:108030000000000000000000178401001984010006
:108040001B8401001B8401001B8401001B840100B0
:108050001B840100000000001B8401001B84010040
:108060001B8401001B8401001B8401001B84010090
:108070001B8401001B8401001B8401001B84010080
:108080001B8401001B8401001B8401001B84010070
:108090001B8401001B8401001B8401001B84010060
:1080A0001B8401001B840100000000000000000090
:1080B00000000000000000000000000000000000C0
:1080C00010B5064C2378002B07D1054B002B02D0AE
:1080D000044800E000BF0123237010BD6820002089
:1080E0000000000038840100044B10B5002B03D0C1
:1080F0000349044800E000BF10BDC0460000000076
:108100006C20002038840100164B002B00D1144B4A
:108110009D46402292029A1A924600218B460F46B3
:108120001348144A121A00F065F80F4B002B00D0C8
:1081300098470E4B002B00D09847002000210400E8
:108140000D000D48002802D00C4800E000BF00F0F0
:108150002DF82000290000F0D7F800F011F8C046F3
:1081600000000800004000200000000000000000A7
:108170006820002084200020000000000000000093
:10818000084B10B50400002B02D0002100E000BF16
:10819000054B1868836A002B00D09847200000F038
:1081A00031F8C046000000003484010070B500269C
:1081B0000C4D0D4C641BA410A64209D1002600F002
:1081C0002DF90A4D0A4C641BA410A64205D170BDBE
:1081D000B300EB5898470136EEE7B300EB589847E9
:1081E0000136F2E76020002060200020602000209F
:1081F0006420002003008218934200D17047197058
:108200000133F9E7FEE7C046184B1A68FF23134015
:10821000012B01D000207047154B1B681B071ED196
:10822000144B1B68F022110019401A4203D1124B63
:108230001B681A4215D0102903D0302908D000201D
:10824000E9E70D4B1B68F0221A42F6D10120E2E764
:10825000094B1B68F0221A4205D00020DBE7002002
:10826000D9E70120D7E70120D5E7C046E00F00F0AD
:10827000E40F00F0E80F00F0EC0F00F00F4B1A686D
:10828000FF231340012B01D0002070470C4B1B68CB
:108290001B070ED10B4B1A68F0231340402B01D063
:1082A0000020F2E7084B1B68F0221A4203D000209E
:1082B000EBE70020E9E70120E7E7C046E00F00F028
:1082C000E40F00F0E80F00F0EC0F00F010B5FFF73E
:1082D0009BFF002806D0094B094A1A60094B8022EF
:1082E00012021A60FFF7CAFF002805D08022D205CB
:1082F000C123DB000121D15010BDC0460405004060
:10830000DFFF07C0186C004010B504230DE0A0216A
:10831000C9051A00C132FF329200032050500122D9
:108320009A40A120C0000A5001330C2BEFDD0D2331
:108330000CE0A021C9051A00C132FF3292000320CF
:10834000505001229A4011480A5001330F2BF0DDA2
:10835000A022D2050D4B1021D15000240DE0A02207
:10836000D205A123DB0080218901D15001235C408B
:10837000E4B2FA20400000F00BF8002CEFD1A0226C
:10838000D205024B80218901D150EFE70C05000096
:1083900082B00190019B002B12D0019B013B019305
:1083A00008480138C046C046C046C046C046C04620
:1083B000C046C046C046C046C046C046F1D1E9E707
:1083C00002B07047E703000003210A4802680A432D
:1083D0000260094802680A4302600849084A094BDA
:1083E0009B1A03DD043BC858D050FBDC064880478D
:1083F0000648004724050040540500404084010021
:108400000020002068200020CD82010009810100A9
:10841000FEE7FEE7FEE7FEE7FEE7FEE7F8B5C0464B
:10842000F8BC08BC9E467047F8B5C046F8BC08BC0E
:088430009E4670470020002069
:08843800D0FCFF7F01000000F1
:10844000000000000000000000000000000000002C
:10845000000000000000000000000000000000001C
:10846000000000000000000000000000000000000C
:1084700000000000000000000000000000000000FC
:1084800000000000000000000000000000000000EC
:1084900000000000000000000000000000000000DC
:0884A000E9800100C180010028
:04000003100083C99D
:00000001FF
