:020000021000EC
:108000000040002039A6010081A6010083A60100DE
:108010000000000000000000000000000000000060
:1080200000000000000000000000000085A6010024
:10803000000000000000000087A6010089A60100E2
:108040008BA601008BA601000995010021A6010065
:108050008BA60100000000008BA601008BA601008A
:108060008BA601008BA601008BA601008BA6010048
:108070008BA601008BA601008BA601008BA6010038
:108080008BA601008BA601008BA601008BA6010028
:108090008BA601008BA601008BA601008BA6010018
:1080A0008BA601008BA6010000000000000000006C
:1080B00000000000000000000000000000000000C0
:1080C00010B5064C2378002B07D1054B002B02D0AE
:1080D000044800E000BF0123237010BD8020002071
:1080E00000000000E0B90100044B10B5002B03D0E4
:1080F0000349044800E000BF10BDC0460000000076
:1081000084200020E0B90100164B002B00D1144B55
:108110009D46402292029A1A924600218B460F46B3
:108120001348144A121A00F065F80F4B002B00D0C8
:1081300098470E4B002B00D09847002000210400E8
:108140000D000D48002802D00C4800E000BF00F0F0
:108150002DF82000290000F0BFF900F011F8C0460A
:1081600000000800004000200000000000000000A7
:1081700080200020282200200000000000000000D5
:10818000084B10B50400002B02D0002100E000BF16
:10819000054B1868836A002B00D09847200000F038
:1081A00031F8C0460000000068B7010070B5002635
:1081B0000C4D0D4C641BA410A64209D1002603F0FF
:1081C000C7FA0A4D0A4C641BA410A64205D170BD23
:1081D000B300EB5898470136EEE7B300EB589847E9
:1081E0000136F2E778200020782000207820002057
:1081F0007C20002003008218934200D17047197040
:108200000133F9E7FEE7C04680B500AF00F01CF887
:10821000031E06D0094B0A4A1A600A4B802212023A
:108220001A6000F051F8031E05D08023DA05C1233F
:10823000DB000121D150C046BD4680BD0405004091
:10824000DFFF07C0186C004080B500AF1A4B1B68F9
:10825000FF221340012B2AD1184B1B680F22134019
:1082600025D1174B1B68F022134006D1154B1B6814
:10827000F022134001D101231AE0114B1B68F022B8
:108280001340102B06D10F4B1B68F022134001D175
:1082900001230DE00A4B1B68F0221340302B06D15E
:1082A000084B1B68F022134001D1012300E000239A
:1082B0001800BD4680BDC046E00F00F0E40F00F09E
:1082C000E80F00F0EC0F00F080B500AF0D4B1B681D
:1082D000FF221340012B11D10B4B1B680F221340BF
:1082E0000CD10A4B1B68F0221340402B06D1084BDF
:1082F0001B68F022134001D1012300E00023180085
:10830000BD4680BDE00F00F0E40F00F0E80F00F084
:10831000EC0F00F090B583B000AF78600C00100057
:108320001900FB1C221C1A70BB1C021C1A707B1C3F
:108330000A1C1A70FB1C1A78BB1C1B785B001A43C2
:108340007B1C1B789B001A431823FB181B781B020D
:108350001A4311001C23FB181B781A04A023DB0509
:1083600011437A68C132FF329200D150C046BD46F7
:1083700003B090BD80B584B002AF78607868002308
:10838000019300230093002301220121FFF7C2FF84
:10839000C046BD4602B080BD80B582B000AF7860F7
:1083A000A023DA0501217B689940A123DB00D1508D
:1083B000C046BD4602B080BD80B582B000AF7860D7
:1083C000A023DB0501217A6891400A0002495A5036
:1083D000C046BD4602B080BD0C05000080B582B02D
:1083E00000AF78607B681B78022B07D17B685B68E5
:1083F00000220021180000F07BF90AE07B681B785E
:10840000012B06D17B685B6800220021180000F078
:108410006FF9C046BD4602B080BD000080B582B095
:1084200000AF78603960124B180002F02FF97B68BA
:108430001B78012B02D0022B0CD014E00D4B1B78C3
:108440001A000D4B1100180002F020F90B4B01220D
:108450001A7008E0074B1B781A00094B110018002E
:1084600002F014F9C046C046BD4602B080BDC04609
:1084700074B701009C2000208CB701009D200020D3
:10848000F8B7010090B587B000AF3B000F4A13CAA0
:1084900013C312681A600E4A39000E48002301F017
:1084A000F1FE03007B617B693B613B69002B05D0DA
:1084B0003B6900220021180000F01AF9054B180052
:1084C00001F068FFC046BD4607B090BD1CB8010072
:1084D0001D8401006CB70100B0B592B002AF3F231C
:1084E000FB1800221A701C203B185D4A32CA32C3A6
:1084F00008217B185B4A1A607B1801225A607B189E
:10850000594A9A607B1880225200DA60574A7918DB
:108510003818032300F05EFA0300FB62FB6ABB62BB
:10852000BB6A002B05D0BB6A00220021180000F0B6
:10853000DFF80423BB630AE0BB6B1800FFF71AFFE8
:10854000BB6B1800FFF728FFBB6B0133BB63BB6B32
:108550000C2BF1DD0D237B630AE07B6B1800FFF72A
:1085600009FF7B6B1800FFF727FF7B6B01337B63F1
:108570007B6B0F2BF1DD0420FFF71EFF0A2000F0BC
:1085800081F8FFF77FFF1B23FB1855221A70332356
:10859000FB1800221A701DE0354B33243A1912786B
:1085A0001A703B191A78334B1100180002F06EF85C
:1085B0001B23FA183B1919782F4800230093012335
:1085C00001F040FF0A2000F05DF83B191A783B19D2
:1085D00001321A703323FB181B785BB2002BDBDAF5
:1085E000264B180002F052F8C046FB1D180000F0A0
:1085F0007FFA031EF9D1C046FB1D1B78180000F05E
:108600009FFA031EF8D1FB1D1B78712B03D0FB1DB5
:108610001B78512BE8D11A4B180002F037F83F2392
:10862000FB181B78002B03D00D20FFF7B5FE02E0EE
:108630000D20FFF7C1FE3F217B181B785A1E934186
:10864000DBB201225340DBB21A007B181A701A7891
:1086500001210A401A70642000F014F8DFE7C046D8
:1086600054B80100A0200020A4200020DD830100D8
:108670009C2000202CB801006CB701003CB8010020
:1086800048B8010080B584B000AF786015E07B6821
:10869000013B7B600D4BFB60FB6818000138C04656
:1086A000C046C046C046C046C046C046C046C0469A
:1086B000C046C046C046F1D1C0467B68002BE6D11B
:1086C000C046C046BD4604B080BDC046E7030000BA
:1086D00080B500AFBFF34F8FC046034B034ADA604B
:1086E000BFF34F8FC046FEE700ED00E00400FA053F
:1086F00080B584B000AFF860B9607A60FFF7E8FF3A
:10870000C046BD4604B080BD80B584B000AF78607F
:108710007B689B68FB607B68DA68FB68D31A18008B
:10872000BD4604B080BD80B582B000AF78600A005D
:10873000FB1C1A707B681A687B68DB68796889881B
:108740000B40D318FA1C12781A707B68DB685A1C2D
:108750007B68DA60C046BD4602B080BD80B582B09D
:1087600000AF786039607B681A687B689B687968BD
:1087700089880B40D3181A783B681A707B689B680D
:108780005A1C7B689A60C046BD4602B080BD80B569
:1087900084B000AFF860B960BB1D1A80BB68002BC5
:1087A00001D10E231CE0BB1D1B88002B06D0BB1D76
:1087B0001B88013BBA1D1288134001D009230FE02A
:1087C000FB68BA681A60BB1D1B88013B9AB2FB6844
:1087D0009A80FB6800229A60FB680022DA6000231E
:1087E0001800BD4604B080BD80B582B000AF78608F
:1087F0000A00FB1C1A707B681800FFF785FF020057
:108800007B689B889A4208D8FB1C1A787B68110009
:108810001800FFF788FF002300E004231800BD467E
:1088200002B080BD80B582B000AF786039607B68EF
:108830001800FFF769FF031E07D03A687B68110034
:108840001800FFF78BFF002300E005231800BD464A
:1088500002B080BD80B586B000AFF860B9607A60C4
:1088600000237B6109E0BB685A1CBA601B781800C2
:1088700000F066F97B6901337B617A697B689A4213
:10888000F1DB7B681800BD4606B080BD80B584B0C2
:1088900000AFF860B9607A60C046BB68180000F0AD
:1088A00027F90300052BF8D001231800BD4604B0BA
:1088B00080BD80B584B000AF78607B689B68FB604A
:1088C0007B68DA68FB68D31A1800BD4604B080BD27
:1088D00080B586B000AF786039607B681B78012B6B
:1088E00038D17B685B681A78354B11001800FFF7A8
:1088F0007BFF03007B617B69002B0CD00C217B1874
:1089000001221A707B187A695A602E4B1B687A18FC
:10891000100098470FE02A4B1800FFF7CAFF03002A
:10892000012B08D10C217B1800221A70254B1B68E3
:108930007A1810009847224B1800FFF7BAFF020080
:108940001F4B9B889A4237D81F4B0121180000F01B
:10895000D5FC31E07B681B78022B0DD10C217B18F4
:1089600002221A707B68DA687B185A60154B1B6804
:108970007A18100098471FE07B681B78002B1BD1EA
:10898000124A134B11001800FFF74CFF031E04D1CD
:108990000E4B0121180000F0F5FB0D4B1800FFF7FE
:1089A00088FF031E08D10C217B1803221A70054B87
:1089B0001B687A1810009847C046BD4606B080BDB7
:1089C000B0210020A4210020AC210020A8210020FB
:1089D000C0210020B0B58EB000AFF860B9607A60F9
:1089E0001A00FB1C1A703C4B7A681A60BB68002B9B
:1089F00001D107236BE0BB681968BB685B689AB25A
:108A0000364B1800FFF7C3FE03007B637B6B002B24
:108A100001D07B6B5BE0BB689968BB68DB689AB28E
:108A20002F4B1800FFF7B3FE03007B637B6B002B1B
:108A300001D07B6B4BE014217B182A4A31CA31C329
:108A400031CA31C311CA11C3FB689A687B189A6195
:108A5000FB681B795A1E9341DBB21A007B181A750A
:108A60007B18FA1C12781A77FB685B79002B01D00F
:108A70000E2200E0002214217B185A75FB68DB7877
:108A80001A007B189A60FB689B781A007B18DA60E2
:108A9000FB681B781A007B185A60FB685B781A0029
:108AA0007B181A60104A7B181100180000F004FBB4
:108AB00003007B637B6B002B01D07B6B07E000F036
:108AC000CBFC0A4B0121180000F018FC0300180031
:108AD000BD460EB0B0BDC046A4210020B02100208C
:108AE000C021002060B80100D1880100AC21002025
:108AF00080B584B000AF78600F4B1800FFF7D9FE47
:108B000002000D4B9B889A420BD10C4B012118009F
:108B100000F0F4FB0300FB60FB68002B01D0052391
:108B200006E07A68044B11001800FFF77BFE030093
:108B30001800BD4604B080BDB0210020AC2100204B
:108B400080B584B000AF0200FB1D1A700D4BFA1DFA
:108B500012781A700B4B0121180000F013FB030070
:108B6000FB60FB68112B08D1FB1D1A78064B110026
:108B70001800FFF739FE0300FB60FB681800BD46D4
:108B800004B080BDA9210020C021002080B582B0A2
:108B900000AF0200FB1D1A70FB1D1B781A001F237B
:108BA000134001229A40034B1A60C046BD4602B0F2
:108BB00080BDC04600E100E080B582B000AF020099
:108BC000FB1D1A70FB1D1B781A001F231340012286
:108BD0009A401300044A1900C0235B00D150C046DC
:108BE000BD4602B080BDC04600E100E090B583B054
:108BF00000AF02003960FB1D1A70FB1D1B787F2B34
:108C000032D92F4AFB1D1B7819000F230B40083B5C
:108C10009B0806339B00D31804331B68FA1D127897
:108C2000110003220A40D200FF2191400A00D243E2
:108C30001A4011003B689B01FF221A40FB1D1B7864
:108C4000180003230340DB009A401D48FB1D1B78DE
:108C50001C000F232340083B9B080A4306339B005C
:108C6000C31804331A6027E0164AFB1D1B785BB259
:108C70009B08C0339B009B58FA1D127811000322F9
:108C80000A40D200FF2191400A00D2431A4011004D
:108C90003B689B01FF221A40FB1D1B781800032331
:108CA0000340DB009A400748FB1D1B785BB29B0822
:108CB0000A43C0339B001A50C046BD4603B090BD66
:108CC00000ED00E000E100E080B582B000AF0200FE
:108CD000FB1D1A70BB1D0A1C1A70BB1D1A78FB1DE8
:108CE0001B785BB211001800FFF780FFFB1D1B789B
:108CF0005BB21800FFF760FFFB1D1B785BB218002A
:108D0000FFF744FFC046BD4602B080BD80B582B0CB
:108D100000AF78600A00BB1C1A80BB1C1B887A68F5
:108D2000D31800221A60C046BD4602B080BD80B58F
:108D300082B000AF78600A00BB1C1A80BB1C1B8885
:108D40007A68D3181B685A1E9341DBB21800BD46DF
:108D500002B080BD80B582B000AF786039607A68BB
:108D6000C1239B003968D150C046BD4602B080BDCA
:108D700080B582B000AF786039607A68C1239B000B
:108D8000D3583A6813405A1E9341DBB21800BD46CF
:108D900002B080BD80B582B000AF786039607A687B
:108DA000C2239B003968D150C046BD4602B080BD89
:108DB00080B584B000AF78607A689023DB00D35828
:108DC000FB607A689023DB00F968D150FB681800DB
:108DD000BD4604B080BD80B582B000AF78607A68CF
:108DE000A023DB000421D150C046BD4602B080BDA7
:108DF00080B584B000AFF860B9607A60FB6805495F
:108E0000BA685A50FB6804497A685A50C046BD4651
:108E100004B080BD0C0500001405000080B584B0CE
:108E200000AFF860B9607A60FA68A123DB00B96826
:108E3000D150FA68A223DB007968D150C046BD4604
:108E400004B080BD80B582B000AF78607A68A3239B
:108E5000DB00D358DBB21800BD4602B080BD000075
:108E600080B582B000AF78600A00FB1C1A70FB1C52
:108E70001A787B6802495A50C046BD4602B080BD90
:108E80001C05000080B582B000AF78600A00FB1CB2
:108E90001A70FB1C1B787A68D31801221A60C0462E
:108EA000BD4602B080BD000080B582B000AF7860E2
:108EB00008001100FB1C021C1A70BB1C0A1C1A7053
:108EC000FA1CBB1C12781B781343DBB219007B68B9
:108ED000024A9950C046BD4602B080BD6C050000F4
:108EE00080B582B000AF786039607B6803493A682A
:108EF0005A50C046BD4602B080BDC04624050000A1
:108F000090B583B000AF78600C0010001900FB1C16
:108F1000221C1A70BB1C021C1A707B1C0A1C1A70C3
:108F2000FB1C1A78BB1C1B785B001A437B1C1B784C
:108F30009B001A431823FB181B781B021A431100CD
:108F40001C23FB181B781A04A023DB0511437A6845
:108F5000C132FF329200D150C046BD4603B090BD31
:108F600080B584B002AF7860786800230193002355
:108F70000093002301220121FFF7C2FFC046BD4636
:108F800002B080BD80B584B002AF78600A00FB1CDF
:108F90001A70FB1C1B787868002201920022009254
:108FA00000220021FFF7ACFFC046BD4602B080BDE5
:108FB00080B582B000AF7860A023DA0501217B681C
:108FC0009940A123DB00D150C046BD4602B080BD10
:108FD00080B582B000AF78607B681B681800FFF72F
:108FE000BFFF7B681B681800FFF7E2FF7B685B68C8
:108FF00000211800FFF7C6FF7B689B691A4A190019
:109000001000FFF76DFF7B68597D7B681B7D16485C
:109010001A00FFF749FF7B6819687B685B68124894
:109020001A00FFF7E5FE7B681B7D012B17D17B68DB
:109030009B6800211800FFF7A5FF7B68DB6818001C
:10904000FFF78EFF7B68DB681800FFF7B1FF7B68D6
:10905000D9687B689B6804481A00FFF7DFFEC046AA
:10906000BD4602B080BDC0460020004080B582B041
:1090700000AF0200FB1D1A70074A084B11001800D0
:10908000FFF768FEFB1D1B7819000220FFF71CFE8E
:10909000C046BD4602B080BD8000020000200040F6
:1090A00080B500AF034B1800FFF795FEC046BD46E4
:1090B00080BDC0460020004080B582B000AF78601F
:1090C0003960194B9B7D002B01D0082327E07B687A
:1090D000002B01D1154B7B607B681800FFF778FFF0
:1090E000114B3A685A607B681A690F4B1A600E4B35
:1090F0005B68002B04D07B681B7F1800FFF7B6FF6E
:10910000FFF7CEFF084B0022DA74074B00229A7457
:10911000054B01229A75044B00225A750023180052
:10912000BD4602B080BDC046D021002080B80100FD
:1091300080B582B000AF8E235B00104A190010008A
:10914000FFF7E4FD0E4B9B680D4A128A92B29A1803
:10915000FB1D12781A700A4B1B8A9BB201339AB21C
:10916000074B1A82FB1D1B78044A19001000FFF7F9
:1091700077FEC046BD4602B080BDC046002000401C
:10918000D021002080B584B000AF78600A00FB1CBD
:109190001A700023FB60384B9B7C002B01D01123FD
:1091A00065E0354BFA1C12789A74334B7A689A60F2
:1091B000314B00221A828E235B00304A19001000C6
:1091C000FFF7A4FD2D4B08211800FFF75BFEFFF70A
:1091D000AFFF294B5B68002B48D11EE0C0468E23B1
:1091E0005B00264A19001000FFF7A1FD03001A00DA
:1091F00001235340DBB2002B06D01F4B1B8A9AB2CF
:1092000080235B009A42EAD11B4B1B8A9AB28023CF
:109210005B009A4201D0FFF78BFF174B9B7C9AB201
:10922000154B1B8A9BB29A42D8D8134B1B8A9AB211
:1092300080235B009A4202D10F23FB6013E0C046FB
:109240008E235B000D4A19001000FFF770FD03002C
:109250001A0001235340DBB2002BF1D1074B0C2144
:109260001800FFF70FFE044B00229A74FB681800E9
:10927000BD4604B080BDC046D02100200020004083
:10928000B0B500AF84235B000D4A19001000FFF752
:109290003DFD0C4BDB680B4A127DD2B29C18084B8B
:1092A0001800FFF7CFFD03002370064B1B7DDBB2D8
:1092B0000133DAB2034B1A75C046BD46B0BDC04695
:1092C00000200040D021002080B500AF92235B0039
:1092D000094A19001000FFF719FD84235B00064AB4
:1092E00019001000FFF712FD034B00211800FFF7D3
:1092F000C9FDC046BD4680BD00200040F0B585B028
:1093000000AF78600A00FB1C1A70514BDB7C002B0D
:1093100001D0112398E04E4BFA1C1278DA744C4BB2
:109320007A68DA604A4B00221A75494B5B7D01224C
:109330005340DBB2002B01D0FFF7C6FF444B5B6804
:10934000002B00D078E00F23FC1892235B00414AE9
:1093500019001000FFF7EBFC030023700E257C19A9
:1093600084235B003B4A19001000FFF7E0FC030078
:1093700023700D26BC19A2235B00364A1900100089
:10938000FFF7D5FC030023707B191B7801225340A3
:10939000DBB2002B0ED0BB191B7801225340DBB28D
:1093A000002B07D00F23FB181B7801225340DBB2A0
:1093B000002BC8D10F23FB181B78002B0DD10D23D8
:1093C000FB181B78002B08D1FFF75AFF204BDA7CE3
:1093D0001F4B1B7DDBB29A42B5D8A2235B001D4A0E
:1093E00019001000FFF792FC92235B00194A190044
:1093F0001000FFF78BFC164B0022DA740F23FB18CA
:109400001B78002B01D003231EE00D23FB181B78D3
:10941000002B01D00F2317E00D4B5B7D002B05D0F7
:109420000C4B00211800FFF72DFD0CE0094B042127
:109430001800FFF727FD06E081239B00054A19006D
:109440001000FFF787FC00231800BD4605B0F0BDF3
:10945000D02100200020004080B500AF074B5B7D8D
:1094600001225340DBB2002B04D0FFF72DFF034B4A
:1094700001225A75C046BD4680BDC046D02100209D
:1094800080B586B000AF0200FB1D1A7008203B18A3
:1094900001221A703B18FA1D12781A72084BDA680A
:1094A0003B185A60064B0022DA74054B5A68044B8D
:1094B00019683B1818009047C046BD4606B080BDED
:1094C000D021002080B586B000AF0200FB1D1A70CD
:1094D00008203B1800221A703B18FA1D12781A72E5
:1094E000084B9A683B185A60064B00229A74054B49
:1094F0005A68044B19683B1818009047C046BD468F
:1095000006B080BDD021002080B584B000AF80239C
:109510009B00624A19001000FFF72AFC031E3FD08F
:1095200092235B005D4A19001000FFF700FC031E48
:1095300036D092235B00594A19001000FFF7E6FB72
:1095400081239B00554A19001000FFF723FC544B60
:109550005B7D01225340DBB2002B04D04F4B042132
:109560001800FFF78FFC3B0002221A704B4B1800CB
:10957000FFF71EFC02003B00DA60494BDA7C3B003F
:109580001A72474BDA683B005A60454B0022DA7486
:10959000434B5A68424B19683B001800904731E032
:1095A0003E4B04211800FFF7E3FB031E2AD084235F
:1095B0005B003A4A19001000FFF7B9FB031E21D0E7
:1095C000FFF75EFE364BDA7C354B1B7DDBB29A42F1
:1095D00018D1334B5B7D01225340DBB2002B04D00A
:1095E0002E4B04211800FFF74DFC81239B002B4AD2
:1095F00019001000FFF7CEFB294B1B7DDBB21800D2
:10960000FFF73EFF8E235B00244A19001000FFF78E
:109610008EFB031E1AD0224B9B7C9AB2204B1B8AD6
:109620009BB29A4202D9FFF783FD0FE08E235B00C5
:109630001A4A19001000FFF769FB194B9B7C002B9D
:1096400004D0174B9B7C1800FFF73CFFA2235B0064
:10965000124A19001000FFF76AFB031E19D0A2235B
:109660005B000E4A19001000FFF750FB0C4B5B7DAE
:10967000002B04D0094B00211800FFF703FC084B16
:10968000DB7C002B05D0064B1B7DDBB21800FFF7FF
:10969000F7FEC046BD4604B080BDC0460020004075
:1096A000D021002080B582B000AF0200FB1D1A70EF
:1096B000FB1D1B787F2B18D9174AFB1D1B7819003F
:1096C0000F230B40083B9B0806339B00D318043341
:1096D0001A68FB1D1B78190003230B40DB00DA40DE
:1096E00013009B090322134012E00C4AFB1D1B7858
:1096F0005BB29B08C0339B009A58FB1D1B78190076
:1097000003230B40DB00DA4013009B0903221340C4
:109710001800BD4602B080BD00ED00E000E100E0B1
:1097200080B582B000AF78600A00FB1C1A70FB1C89
:109730001B787A68D31801221A60C046BD4602B071
:1097400080BD80B582B000AF78600A00BB1C1A8073
:10975000BB1C1B887A68D31800221A60C046BD461D
:1097600002B080BD80B582B000AF78600A00BB1C3B
:109770001A80BB1C1B887A68D3181B685A1E934139
:10978000DBB21800BD4602B080BD80B582B000AF2C
:10979000786039607A6880239B00D2583B681A430E
:1097A00011007A6880239B00D150C046BD4602B0AC
:1097B00080BD80B582B000AF786039607A68802360
:1097C0009B00D3583A68D2431A4011007A6880232C
:1097D0009B00D150C046BD4602B080BD80B582B06E
:1097E00000AF786039607A68C1239B003968D15036
:1097F000C046BD4602B080BD80B582B000AF786083
:1098000039607A68C2239B003968D150C046BD4692
:1098100002B080BD80B582B000AF786039607B68EF
:1098200003493A685A50C046BD4602B080BDC046A2
:109830002405000080B584B000AF78607B68064ADC
:109840009B58FB607B680449FA685A50FB68180013
:10985000BD4604B080BDC046C404000080B582B0DF
:1098600000AF78607A68A023DB000521D150C046A4
:10987000BD4602B080BD000080B584B000AFF86086
:10988000B9607A60FA68A123DB00B968D150FB683F
:1098900003497A685A50C046BD4604B080BDC046F0
:1098A0000C05000080B582B000AF78607A68A32311
:1098B000DB00D358DBB21800BD4602B080BD00000B
:1098C00080B582B000AF78600A00FB1C1A70FB1CE8
:1098D0001A787B6802495A50C046BD4602B080BD26
:1098E0001C05000080B582B000AF78600A00FB1C48
:1098F0001A70FB1C19787A68B123DB00D150C0467E
:10990000BD4602B080BD36DF7047C046180037DF65
:109910007047C0461800000080B582B000AF0C4B05
:109920005B68DB05DB0D7B607B68002B0AD07B6806
:10993000103B3B603B685BB21800FFF7B3FE0300CF
:10994000DBB200E004231800BD4602B080BDC04673
:1099500000ED00E080B582B000AF7860A023DA05AA
:1099600001217B689940A123DB00D150C046BD4650
:1099700002B080BD80B582B000AF7860A023DB0567
:1099800001217A6891400A0002495A50C046BD46FA
:1099900002B080BD0C05000080B582B000AF7860D9
:1099A000A023DA05A223DB00D2587B68DA4013003B
:1099B000012213401800BD4602B080BD90B587B0AB
:1099C00000AF78600A00FB1C1A701323FB180022FA
:1099D0001A707B685B79180012243A192849030031
:1099E0005B001B18DB00CB1801331B7813703B198D
:1099F0001A78244B9200D358FB6000237B6130E03F
:109A00007B69DB00FA68D3181B78FA1C12789A423B
:109A100024D17B69DB00FA68D3187A685279110087
:109A20005878174A0B005B005B18DB00D318013332
:109A3000021C1A707B69DB00FA68D3185B68002B84
:109A400007D07B69DB00FA68D3185B687A6810007E
:109A500098471323FB1801221A700CE07B6901332D
:109A60007B611223FB181A78074B9200D3587A694E
:109A70009A42C5D3C046C046BD4607B090BDC04659
:109A8000F02100206420002038B9010080B586B0A4
:109A900000AF78607B685B791A0013005B009B184D
:109AA000DB00324A9B1804333B617B681B6803214F
:109AB0001800FFF77EFE3B695B8901333A69128922
:109AC000934235D13B695B7801225340DBB2002BD6
:109AD0002ED002237B613B6982225200DA817B68AF
:109AE0001A683B69DB8919001000FFF72AFE7B68C2
:109AF0005B791A001E4B9200D358002B12D07B6862
:109B00001A683B691B6919001000FFF775FE3B6975
:109B100002221A617B681A683B691B6919001000F0
:109B2000FFF75CFE7B6804211800FFF747FF01E0A8
:109B300001237B617B681B687A6911001800FFF7BD
:109B400024FE0F217B183A69127B1A703B69202290
:109B50001A737B681A687B181B7819001000FFF7CE
:109B6000DFFDC046BD4606B080BDC046F0210020E6
:109B7000E821002080B584B000AF78607B685B7915
:109B80001A0013005B009B18DB00224A9B18043369
:109B9000FB607B681A68FB68DB7819001000FFF730
:109BA000A1FE7B681B6820211800FFF7B9FDFB6848
:109BB00008221A73FB688E225200DA817B681A68C9
:109BC000FB68DB8919001000FFF7BBFD7B685B7940
:109BD0001A00114B9200D358002B12D07B681A68E0
:109BE000FB681B6919001000FFF706FEFB68802266
:109BF0001A617B681A68FB681B6919001000FFF77F
:109C0000EDFD7B68180000F09BF8C046BD4604B02F
:109C100080BDC046F0210020E821002080B584B03E
:109C200000AF78607B685B791A0013005B009B18BB
:109C3000DB00224A9B180433FB607B681A68FB68D0
:109C4000DB7819001000FFF74DFE7B681B682021B0
:109C50001800FFF765FDFB6800221A73FB68842279
:109C60005200DA817B681A68FB68DB8919001000F2
:109C7000FFF767FD7B685B791A00114B9200D358A0
:109C8000002B12D07B681A68FB681B691900100052
:109C9000FFF7B2FDFB6804221A617B681A68FB6853
:109CA0001B6919001000FFF799FD7B68180000F090
:109CB00009F8C046BD4604B080BDC046F021002072
:109CC000E821002080B582B000AF78607B68180082
:109CD000FFF7DCFEC046BD4602B080BD90B585B042
:109CE00000AF78607B685B791A0013005B009B18FB
:109CF000DB00124A9B180433FB607B681968FB6821
:109D00005B68FA6852899C180800FFF7CBFD0300D6
:109D10002370FB685B8901339AB2FB685A81FB6848
:109D20005A89FB681B899A4203D27B681800FFF7A7
:109D3000C9FFC046BD4605B090BDC046F021002019
:109D400080B584B000AF78607B685B791A0013003F
:109D50005B009B18DB000B4A9B180433FB607B689D
:109D60001868FB685B68FA6852899B181B781900B1
:109D7000FFF7A6FD7B681800FFF788FEC046BD46CA
:109D800004B080BDF021002080B584B000AF7860C1
:109D90007B685B791A0013005B009B18DB000C4AA0
:109DA0009B180433FB60FB685B8901339AB2FB6844
:109DB0005A81FB685A89FB681B899A4203D27B68E7
:109DC0001800FFF7BDFFC046BD4604B080BDC046C9
:109DD000F021002080B584B000AF78607B685B79AB
:109DE0001A0013005B009B18DB001D4A9B1804330C
:109DF000FB60FB6882225200DA817B681A68FB688C
:109E0000DB8919001000FFF79CFC7B685B791A0066
:109E1000144B9200D358002B12D07B681A68FB6851
:109E20001B6919001000FFF7E7FCFB6802221A61AA
:109E30007B681A68FB681B6919001000FFF7CEFCED
:109E40007B681B6820211800FFF76AFC7B681B6891
:109E500014211800FFF764FCC046BD4604B080BD65
:109E6000F0210020E821002080B584B000AF7860A8
:109E70007B685B791A0013005B009B18DB00054AC6
:109E80009B180433FB60FB6801229A70C046BD46F4
:109E900004B080BDF0210020F0B587B000AF78603D
:109EA00000237B617B685B791A0013005B009B18C1
:109EB000DB00244A9B1804333B617B681A683B69CA
:109EC000DB890F26BC1919001000FFF74BFC0300BB
:109ED00023707B681B680E257C19922252001100AA
:109EE0001800FFF73FFC030023707B6901337B619F
:109EF0007B69154A9A429B415B42DBB21A007B198F
:109F00001B781A437B19511E8A411A707A19BB19A2
:109F100012781B781343DBB201225340DBB2002BD3
:109F2000CBD17B191B785A1E9341DBB201225340DF
:109F3000DBB21A1C01231340DBB21800BD4607B088
:109F4000F0BDC046F0210020FE0F000080B588B0B3
:109F500000AF78603960A023DA053B681B68C13325
:109F6000FF339B004F499950A023DA053B685B689B
:109F7000C133FF339B004B4999503B681B68180065
:109F8000FFF7E8FC3B685B681800FFF7E3FCA023E1
:109F9000DA053B681B68C133FF339B004249995087
:109FA000A023DA053B685B68C133FF339B003E4961
:109FB000995004237B617B6918000138C046C04674
:109FC000C046C046C046C046C046C046C046C04661
:109FD000C046C046F1D1C0460023FB613DE03B686E
:109FE0005B681800FFF7D8FC031E03D0FB69002B49
:109FF00037D154E03B681B681800FFF7BBFC042313
:10A000003B613B6918000138C046C046C046C046A7
:10A01000C046C046C046C046C046C046C046C04610
:10A02000F1D1C0463B681B681800FFF793FC04237E
:10A03000FB60FB6818000138C046C046C046C046F9
:10A04000C046C046C046C046C046C046C046C046E0
:10A05000F1D1C046FB690133FB61FB69082BBEDD12
:10A0600000E0C0463B685B681800FFF783FC0423F0
:10A07000BB61BB6918000138C046C046C046C04637
:10A08000C046C046C046C046C046C046C046C046A0
:10A09000F1D1C0463B685B681800FFF75BFCBD462A
:10A0A00008B080BD0C0600000D06000090B58FB012
:10A0B00000AFF8607A603B600B23FB180A1C1A7033
:10A0C000FB685B791A0013005B009B18DB006B4A8E
:10A0D0009B183B633723FB1800221A7017243B1987
:10A0E00000221A70FFF718FC0300FB62FB6A012BC9
:10A0F00015D03B191800FFF706FC0300BB62BB6AD2
:10A10000022B01D172B60AE0BB6A7B627B6A002B2C
:10A1100005D07B6A002200211800FEF7E9FA3B6BAC
:10A120009B78DBB2002B04D03723FB1801221A7076
:10A1300002E03B6B01229A70FB6A012B17D062B6DA
:10A14000C0461723FB181B781800FFF7E0FB03003D
:10A150003B623B6A022B0AD03B6AFB61FB69002B26
:10A1600005D0FB69002200211800FEF7C1FA372351
:10A17000FB181B78002B01D011237BE03B6B0433D1
:10A18000BB61BB690B22BA181278DA703B689AB2CD
:10A19000BB691A81BB697A685A60BB6900225A811F
:10A1A000BA69402308218C46BC4463441B78537031
:10A1B000BB69442208218C46BC44624412781A7060
:10A1C000BB6900229A70BB691B7801225340DBB245
:10A1D0001A00FB6811001800FFF7F0FBFB685B79C1
:10A1E0001A00274B9200D358002B42D1BB691B7831
:10A1F000002B01D0022200E003223623FB181A7044
:10A20000FB681800FFF748FE03001A0001235340C3
:10A21000DBB2002B0BD0FB681B68922252001100AE
:10A220001800FFF78EFA3623FB1805221A70FB6818
:10A230001A68BB69DB8919001000FFF782FA362320
:10A24000FB181A78FB6811001800FFF7B7FBBB6911
:10A250009B78002B04D03B6B00229A70032309E00B
:10A26000BB695A89BB691B899A42C9D33B6B0022DF
:10A270009A7000231800BD460FB090BDF021002059
:10A28000E821002080B584B000AFF860B9607A6042
:10A290003B60FB685B791900384A0B005B005B1878
:10A2A000DB009B5C002B01D0082362E0BB68002B25
:10A2B00005D1FB685B791A01314BD318BB60FB6891
:10A2C0005B791A002F4B92007968D150FB685B795B
:10A2D0001A002D4B92003968D150FB685B791A0047
:10A2E0002A4B9200F968D150BA68FB681100180037
:10A2F000FFF72CFEA023DA05BB681B68C133FF33D0
:10A300009B0023499950A023DA05BB685B68C133E1
:10A31000FF339B001E499950FB681A68BB689B6815
:10A3200019001000FFF776FAFB681868BB68196817
:10A33000BB685B681A00FFF79FFAFB685B791A003D
:10A34000104B9200D358002B08D0FB6804229A5679
:10A35000BB681B7B19001000FEF7B6FCFB685B793D
:10A360001900064A0B005B005B18DB0001219954C1
:10A3700000231800BD4604B080BDC046F021002077
:10A38000A0B80100E8210020EC21002008220020D4
:10A390000C06000080B582B000AF78607B681B6857
:10A3A0008222520011001800FFF7CBF97B681B686E
:10A3B0008422520011001800FFF7C3F97B681B6864
:10A3C0008E22520011001800FFF7BBF97B681B6852
:10A3D0009222520011001800FFF7B3F97B685B79F5
:10A3E0001A00164B9200D358002B07D07B681B68CD
:10A3F0008022920011001800FFF7F0F97B681B68BB
:10A400001800FFF72BFA7B685B7919000C4A0B00E8
:10A410005B005B18DB00022199547B685B791900B3
:10A42000074A0B005B005B18DB00D31801330022E6
:10A430001A70C046BD4602B080BDC046E82100206B
:10A44000F021002090B587B002AFF8607A603B60E1
:10A450000B203B180A1C1A703C687A683B18197864
:10A46000F868012301932023FB181B780093230035
:10A47000FFF71CFE03001800BD4605B090BD0000AC
:10A48000F0B58FB000AF786039603A6813005B00B8
:10A490009B18DB005E4A9B183B633B6B0433FB62FB
:10A4A0002B257C1992235A007B6811001800FFF7B6
:10A4B00059F903002370FB6ADA892A26BC197B68E4
:10A4C00011001800FFF74EF90300237092235A0081
:10A4D0007B6811001800FFF734F98E235A007B685F
:10A4E00011001800FFF72DF984235A007B68110032
:10A4F0001800FFF726F982235A007B681100180024
:10A50000FFF71FF97B191B78002B04D1BB191B78AF
:10A51000002B00D177E02B23FB181B78002B04D0F5
:10A520003723FB1805221A7009E0FB6A1B78002B01
:10A5300001D0022200E003223723FB181A70354BAA
:10A540003A689200D2583723FB181B781900100084
:10A55000FFF734FAFB6A9B78002B29D03B6B002273
:10A560009A7018217B1802221A70FB6A5A687B18AD
:10A570005A60FB6A5B891A007B189A607B68180036
:10A58000FFF758F903000222134001D0022200E035
:10A59000042218203B181A731F4B3A689200D358B4
:10A5A0001E4A3968890089583A18100098472AE0ED
:10A5B000FB6A5A89FB6A1B899A4224D33B6B0022AF
:10A5C0009A7008243B19180010231A000021FDF787
:10A5D00011FEFB6A1B781A0020003B181A70FB6AF8
:10A5E0005A683B185A60FB6A5B891A003B189A60EC
:10A5F000094B3A689200D358084A3968890089584B
:10A600003A1810009847C046BD460FB0F0BDC0468E
:10A61000F021002008220020E8210020EC21002069
:10A6200080B500AF034B00211800FFF729FFC0469B
:10A63000BD4680BD0030004003210A4802680A433D
:10A640000260094802680A4302600849084A094B47
:10A650009B1A03DD043BC858D050FBDC06488047FA
:10A66000064800472405004054050040E8B90100B1
:10A6700000200020802000200982010009810100C3
:10A68000FEE7FEE7FEE7FEE7FEE7FEE70FB40B4B53
:10A6900013B51C68002C05D0A369002B02D1200043
:10A6A00000F070F805AB2000049AA168019300F057
:10A6B00093F916BC08BC04B01847C046002000201F
:10A6C000002310B50400036043608360818143660A
:10A6D0001900C28103614361836108225C30FDF788
:10A6E00089FD054B6362054B2462A362044BE36260
:10A6F000044B236310BDC04675AF01009DAF010040
:10A70000D5AF010001B0010010B5024900F0BAF860
:10A7100010BDC0460DB3010070B568254A1E5543F3
:10A720000E002900743100F0D1F8041E08D0002179
:10A730002A00016046600C30A0606832FDF75AFDC7
:10A74000200070BD10B5024800F0BDF810BDC04635
:10A750002022002010B5024800F0B6F810BDC04617
:10A760002022002010B5024800F0ADF810BDC04610
:10A770001B22002010B5024800F0A6F810BDC0460C
:10A780001B22002013B50400FFF7ECFFA369002B88
:10A7900002D0FFF7EFFF13BDA364E3642365134BFF
:10A7A000134A1B68A2620193A34201D10123A36152
:10A7B000200000F01FF86060200000F01BF8A0608F
:10A7C000200000F017F800220421E0606068FFF725
:10A7D00077FF01220921A068FFF772FF02221221F0
:10A7E000E068FFF76DFF0123A361D2E768B70100BE
:10A7F00009A70100F8B50700FFF7A4FF1F4B1E686B
:10A80000B369002B02D13000FFF7BCFF4836B468B3
:10A810007368013B04D53368002B22D03668F6E715
:10A820000C22A55E002D1AD12000154B5830E36094
:10A83000656600F047F8FFF78DFF20000822290029
:10A840002560A560656025616561A5615C30FDF7E7
:10A85000D1FC6563A563A564E5642000F8BD683498
:10A86000D7E704213800FFF757FF041E3060D5D129
:10A87000FFF770FF0C233B60EFE7C04668B70100AD
:10A880000100FFFFF7B504000600002701914834DE
:10A890006368A5680093009B013B009304D524687E
:10A8A000002CF5D13800FEBDAB89012B08D90E2252
:10A8B000AB5E013304D029003000019B9847074369
:10A8C0006835E8E77047704770470000F8B5032324
:10A8D000CD1C9D43083506000C2D1FD20C25A94226
:10A8E0001ED8300000F0DEFD25490A681400002C57
:10A8F0001AD1244F3B68002B04D12100300000F016
:10A9000027FB38602900300000F022FB431C2BD1CC
:10A910000C233000336000F0CDFD03E0002DDEDAC3
:10A920000C2333600020F8BD23685B1B19D40B2B6C
:10A9300003D92360E418256003E06368A2420ED1C6
:10A940000B60300000F0B6FD200007220B30231D05
:10A950009043C21A9842E6D01B1AA350E3E7536013
:10A96000EFE722006468C2E70323C41C9C43A042B3
:10A97000E1D0211A300000F0EBFA431CDBD1C7E72D
:10A980000C22002010220020936810B5013B936038
:10A99000002B04DA9469A34207DB0A2905D0136867
:10A9A000581C10601970080010BD00F02FFB01004A
:10A9B000F9E7F8B506000F001400D518AC4201D134
:10A9C000002007E021783A003000FFF7DDFF013476
:10A9D000431CF3D1F8BD0000F0B5A1B006000C0097
:10A9E0001F000392002804D08369002B01D1FFF7D8
:10A9F000C9FE8E4B9C421CD17468636EDB0705D484
:10AA0000A3899B0502D4A06DFFF75DFFA3891B07F7
:10AA100002D52369002B1DD12100300000F060FB1E
:10AA2000002817D0636EDB070DD50120404221B00E
:10AA3000F0BD7F4B9C4201D1B468DEE77D4B9C4268
:10AA4000DBD1F468D9E7A3899B05EED4A06DFFF7AD
:10AA50003BFFEAE7002308AD6B6120336B761033D0
:10AA6000AB760797039F3B78002B01D0252B4ED167
:10AA7000039BFB1A0593039B9F420DD0059B21006E
:10AA80003000039AFFF795FF431C00D1B5E06A69D7
:10AA9000059B944663446B613B78002B00D1ACE08E
:10AAA00001227B1C0393002352426A6004A95432A2
:10AAB00052182B60EB60AB601370AB65039B0522F3
:10AAC00019785D4800F0E2FC039B5F1C002820D150
:10AAD0002A68D30604D5532304A95B1820211970D2
:10AAE000130704D5532304A95B182B211970039B6A
:10AAF0001B782A2B16D00021EB68039F3A78781C2C
:10AB0000303A8446092A4FD9002911D117E001377C
:10AB1000A9E7494B2A68C01A0123834013432B60DD
:10AB20000397CBE7079B191D1B680791002B01DBDF
:10AB30000B9304E05B42EB60022313432B603B78F2
:10AB40002E2B0AD17B782A2B37D1079B02371A1D6F
:10AB50001B680792002B2DDB0993032239783748B5
:10AB600000F094FC002807D0344B2A68C01A402318
:10AB70008340134301372B6039787B1C0622304811
:10AB80000393297600F082FC002845D02D4B002B42
:10AB900027D10722079B07339343083307936B6939
:10ABA000049A9B186B615DE70A214B4367469B182B
:10ABB0000939A3E701235B42CEE700231A000137DE
:10ABC0006B603978781C30398446092903D9002B09
:10ABD000C3D00992C1E70A235A4367465218093B7A
:10ABE000EFE707AB0093220029003000164B00E08E
:10ABF00000BF0490049B0133D1D1636EDB0705D401
:10AC0000A3899B0502D4A06DFFF75EFEA3895B06B6
:10AC100000D50AE70D980AE707AB00932200290048
:10AC20003000094B00F082F8E3E7C0466CB9010040
:10AC30008CB901004CB90100ACB90100B2B90100F6
:10AC4000B6B9010000000000B3A90100F7B5150076
:10AC500001938A680B690C000090934200DA13009C
:10AC600022002B6043321278002A01D001332B607E
:10AC700023689B0602D52B6802332B6022680623CB
:10AC800017001F401A4227D0230043331B785A1E57
:10AC900093412268920630D4220001990098089EC0
:10ACA0004332B047431C25D0062320682A68E16858
:10ACB00000250340042B03D18D1AEB43DB171D4005
:10ACC000A3682269934201DD9B1AED180027BD425B
:10ACD00020D1002010E00137E3682A689B1ABB42AC
:10ACE000D2DD2200012301990098089E1932B04755
:10ACF000431CF0D101204042FEBD3020E118433119
:10AD0000087021005A1C45310978A21843320233D9
:10AD10001170C1E72200012301990098089E1A32A0
:10AD2000B047431CE6D00137D1E70000F0B58BB047
:10AD300006920A0043320793059004920A7E0C00A3
:10AD4000109B782A06D8622A08D8002A00D1C0E0D1
:10AD5000582A52D026004236327022E01000633862
:10AD60001528F7D800F030FC16001F00F6FFF6FF9C
:10AD7000F6FFF6FF1F00F6FFF6FFF6FFF6FFA8004E
:10AD800036009A00F6FFF6FFB900F6FF3600F6FF30
:10AD9000F6FF9E0026001A684236111D19601368DE
:10ADA00033700123A7E0086819680A1D05060BD552
:10ADB0000D681A60002D03DA2D23049A6D4213707A
:10ADC000614B0A27039332E00D681A604106F1D502
:10ADD0002DB2EFE70D681968081D18602E0601D521
:10ADE0000D6803E06D06FBD50D68ADB2564B0A2722
:10ADF00003936F2A17D1082715E045310A70524A8C
:10AE000003921A68216820CA1A60080650D5CB0739
:10AE100002D52023194321601027002D03D12023C0
:10AE200022689A4322602300002243331A70636829
:10AE3000A360002B03DB0422216891432160002DD5
:10AE400002D1049E002B0CD0049E2800390000F093
:10AE50004BFC039B013E5B5C33702B0005009F4263
:10AE6000F3D9082F09D12368DB0706D56368226967
:10AE7000934202DC3023013E3370049B9B1B236111
:10AE8000079B210000930598069B09AAFFF7DEFEA9
:10AE9000431C35D1012040420BB0F0BD202209688F
:10AEA0000A4322602200782145321170274AA7E721
:10AEB0004806ACD5ADB2AAE71A680D68101D4969FD
:10AEC000186013682E0601D5196002E06D06FBD5E7
:10AED00019800023049E2361D2E71A68111D1960AE
:10AEE000166800213000626800F0D0FA002801D016
:10AEF000801B6060636823610023049A1370BFE7BE
:10AF00002369320006990598079DA847431CC1D0C4
:10AF100023689B0715D4099BE0689842BCDA1800A7
:10AF2000BAE72200012306990598079E1932B04717
:10AF3000431CAFD00135E368099A9B1AAB42F0DCA1
:10AF4000E9E70025F7E7C046BDB90100CEB9010029
:10AF5000002370B5064D040008002B6000F0EAFBEA
:10AF6000431C03D12B68002B00D0236070BDC0466A
:10AF70002422002070B50C000E25495F00F0ECFA89
:10AF8000002803DB636D1B18636570BDA389024A4B
:10AF90001340A381F9E7C046FFEFFFFFF8B51F009C
:10AFA0008B8905000C001600DB0505D50E23C95E54
:10AFB0000022022300F0EAF9A389054A2800134081
:10AFC000A38132000E23E15E3B0000F075F8F8BD6E
:10AFD000FFEFFFFF70B50C000E25495F00F0D6F9BA
:10AFE000A389421C03D1054A1340A38170BD80226E
:10AFF00052011343A3816065F8E7C046FFEFFFFFEE
:10B0000010B50E23C95E00F0E3F810BDF8B50500D9
:10B010000E001400002804D08369002B01D1FFF733
:10B02000B1FB224B9C422ED16C68A369A360A3891B
:10B030001B0732D52369002B2FD023682269F7B272
:10B04000981A6369F6B2834205DC2100280000F0FB
:10B050005DF9002827D1A3680130013BA360236874
:10B060005A1C22601F706369834204D0A389DB07E6
:10B0700007D50A2E05D12100280000F047F9002845
:10B0800011D13000F8BD0A4B9C4201D1AC68CCE72D
:10B09000084B9C42C9D1EC68C7E72100280000F0AA
:10B0A0001FF80028C9D001267642EAE76CB90100F2
:10B0B0008CB901004CB9010070B504000800110002
:10B0C0001A000023054D2B60FDF7C4FB431C03D180
:10B0D0002B68002B00D0236070BDC04624220020C6
:10B0E000374B70B51D6806000C00002D05D0AB690C
:10B0F000002B02D12800FFF745FB324B9C420FD1B9
:10B100006C680C23E25E93B211072DD4D90611D4DA
:10B1100009230120336037331343A381404270BDBC
:10B12000294B9C4201D1AC68EBE7284B9C42E8D10B
:10B13000EC68E6E75B0713D5616B002908D02300B4
:10B140004433994202D0300000F0BCF9002363631D
:10B150002422A3899343A38100236360236923608E
:10B160000823A2891343A3812369002B0BD1A021BB
:10B170008022A389890092000B40934203D02100D2
:10B18000300000F03FF90C22A35E01201A0099B2B2
:10B19000024003420FD00022A26062695242A261C3
:10B1A000002022698242BAD10A06B8D54022134350
:10B1B000A3810138B3E7880700D46269A260EFE792
:10B1C000002000206CB901008CB901004CB90100CD
:10B1D000002370B5064D040008002B6000F08AFAC9
:10B1E000431C03D12B68002B00D0236070BDC046E8
:10B1F00024220020F7B58B8905000C001A075FD4C4
:10B200004A68002A04DC0A6C002A01DC0020FEBD2A
:10B21000E76A002FFAD0002280212E682A601A00E7
:10B2200049010A400B4234D0606DA3895B0706D503
:10B230006368C01A636B002B01D0236CC01A020034
:10B24000216A00232800E76AB847A189431C06D178
:10B250002B681D2B31D82C4ADA40D3072DD500237B
:10B26000636023692360CB0405D5431C02D12B689E
:10B27000002B00D16065616B2E600029C6D02300D1
:10B280004433994202D0280000F01CF9002060638A
:10B29000BDE701232800216AB847431CC5D12B68AC
:10B2A000002BC2D01D2B01D0162B01D12E60ADE793
:10B2B0004023A2891343A381A9E740230B43FAE764
:10B2C0000F69002FA2D00A680F60D21B01920022E2
:10B2D0009B0700D14A69A260019B002B00DC95E727
:10B2E0003A002800019B216AA66AB047002806DCC4
:10B2F00040230120A28940421343A38187E7019B99
:10B300003F181B1A0193E7E7010040200B6970B555
:10B3100005000C00002B02D10025280070BD00287C
:10B3200004D08369002B01D1FFF72CFA144B9C4207
:10B330001BD16C680C22A35E002BEDD0626ED2078D
:10B3400004D49B0502D4A06DFFF7BDFA28002100AC
:10B35000FFF750FF636E0500DB07DED4A3899B0572
:10B36000DBD4A06DFFF7B0FAD7E7064B9C4201D1C2
:10B37000AC68DFE7044B9C42DCD1EC68DAE7C046FE
:10B380006CB901008CB901004CB9010070B5040022
:10B39000080011001A000023054D2B6000F0C2F9CF
:10B3A000431C03D12B68002B00D0236070BDC04626
:10B3B0002422002070B50E001D000E23C95E14006B
:10B3C00096B0002907DA00232B60B3891B0611D43D
:10B3D0008023DB000FE06A4600F0D2F80028F2DBA1
:10B3E000F02301991B021940054BC9184B425941E2
:10B3F0002960EDE740230020236016B070BDC046F1
:10B4000000E0FFFFF7B502268B8905000C003342F0
:10B4100006D0230047332360236101236361F7BD16
:10B420006A4601ABFFF7C6FF009907002800FFF747
:10B430004DFA002808D10C22A35E9A05EFD403220E
:10B4400093431E43A681E4E70F4BAB628023A2899E
:10B4500020601343A381009B20616361019B002B4B
:10B460000DD028000E23E15E00F09CF8002806D0E5
:10B470000322A38993431A0001231343A381A089C4
:10B480000743A781CBE7C04609A70100C9B28218CC
:10B49000904201D10020704703788B42FBD00130ED
:10B4A000F6E7000010B50248FFF70DFA10BDC046E0
:10B4B0001C22002010B50248FFF706FA10BDC04656
:10B4C0001C22002070B50500002910D00C1F236835
:10B4D000002B00DAE4182800FFF7E4FF1D4A136888
:10B4E000002B05D1636014602800FFF7E3FF70BDF7
:10B4F000A34208D9216860188342F3D118685B68B9
:10B5000041182160EEE71A005B68002B01D0A342CE
:10B51000F9D911685018A0420BD1206809185018A9
:10B5200011608342E0D118685B6841181160536074
:10B53000DAE7A04202D90C232B60D5E72168601816
:10B54000834203D118685B684118216063605460CE
:10B55000CAE7C0460C22002070B5040008001100A4
:10B560001A000023054D2B60FDF790F9431C03D111
:10B570002B68002B00D0236070BDC0462422002021
:10B58000002370B5064D0400080011002B6000F088
:10B59000B9F8431C03D12B68002B00D0236070BD89
:10B5A00024220020002370B5064D040008002B6003
:10B5B00000F0B0F8431C03D12B68002B00D02360AF
:10B5C00070BDC0462422002003B4714649084000E3
:10B5D0004900095E49008E4403BC704700224308BD
:10B5E0008B4274D303098B425FD3030A8B4244D34B
:10B5F000030B8B4228D3030C8B420DD3FF2209028D
:10B6000012BA030C8B4202D31212090265D0030B4B
:10B610008B4219D300E0090AC30B8B4201D3CB0341
:10B62000C01A5241830B8B4201D38B03C01A524183
:10B63000430B8B4201D34B03C01A5241030B8B4285
:10B6400001D30B03C01A5241C30A8B4201D3CB0270
:10B65000C01A5241830A8B4201D38B02C01A524155
:10B66000430A8B4201D34B02C01A5241030A8B4258
:10B6700001D30B02C01A5241CDD2C3098B4201D370
:10B68000CB01C01A524183098B4201D38B01C01AEE
:10B69000524143098B4201D34B01C01A5241030965
:10B6A0008B4201D30B01C01A5241C3088B4201D314
:10B6B000CB00C01A524183088B4201D38B00C01AC1
:10B6C000524143088B4201D34B00C01A5241411AE8
:10B6D00000D20146524110467047FFE701B50020F5
:10B6E00000F006F802BDC0460029F7D076E77047A3
:10B6F0007047C04658220120014B40421A607047F3
:10B700002422002058220120014B40421A60704739
:10B71000242200205822024B00201A607047C046A5
:10B720002422002058220120014B40421A60704719
:10B7300024220020044A03001068002802D0C31805
:10B74000136070470148FAE71422002028220020E5
:10B75000F8B5C046F8BC08BC9E467047F8B5C04670
:10B76000F8BC08BC9E467047042000200030004012
:10B77000030000004576656E742068616E646C6538
:10B78000722063616C6C6564210D0A000D0A212A28
:10B790002A2A2A2A2A2A2A2A2A2A2A2A2A2A2A2A09
:10B7A0002A2A2A2A2A2A2A2A2A2A2A210D0A4465EA
:10B7B0007669636520666F756E6420617420372D2D
:10B7C00062697420616464726573733A202523781A
:10B7D000210D0A212A2A2A2A2A2A2A2A2A2A2A2A18
:10B7E0002A2A2A2A2A2A2A2A2A2A2A2A2A2A2A2AB9
:10B7F000210D0A0D0A0000000D0A212A2A2A2A0D0D
:10B800000A4572726F72206174206164647265739C
:10B810007320252378200D0A00000000000000009E
:10B820001E000000000098010100000054727969B8
:10B830006E672E2E2E25640A0D0000000A0D53742B
:10B840006172743A200A0D00200A0D45786974214E
:10B850000A0D0000191823230100000000E0D701A1
:10B86000090000000B0000000A00000008000000B2
:10B87000000000000000000000E0D701030000000D
:10B88000090000000B0000000A0000000800000092
:10B89000000000000000000000E0D70103000000ED
:10B8A000070000001E0000000000980103000000D7
:10B8B00000010000759B0100010200001D9C0100B9
:10B8C00002010000899D0100010200001D9C010091
:10B8D00000010000419D0100040300000000000081
:10B8E00005040000D59D010001020000C59C010077
:10B8F00003020000DD9C01000403000000000000C2
:10B9000005040000D59D010003000000DD9C01003E
:10B9100002000000899D010005000000699E0100F1
:10B9200003000000699E010002000000699E010002
:10B9300005000000699E01000200000005000000F3
:10B9400004000000030000000300000000000000ED
:10B9500000000000000000000000000000000000E7
:10B9600000000000000000000000000000000000D7
:10B9700000000000000000000000000000000000C7
:10B9800000000000000000000000000000000000B7
:10B9900000000000000000000000000000000000A7
:10B9A000000000000000000000000000232D302BEC
:10B9B0002000686C4C0065666745464700303132B0
:10B9C0003334353637383941424344454600303107
:10B9D0003233343536373839616263646566000066
:08B9E00028C7FF7F01000000F1
:10B9E80004200020000000006CB901008CB901009F
:10B9F8004CB9010000000000000000000000000039
:10BA0800000000000000000000000000000000002E
:10BA1800000000000000000000000000000000001E
:10BA2800000000000000000000000000000000000E
:10BA380000000000000000000000000000000000FE
:10BA480000000000B0B80100C0B80100E8B801006B
:10BA580008B9010020B90100E9800100C180010096
:040000031000A6390A
:00000001FF
