:020000021000EC
:10800000008000203D8301008583010087830100FB
:108010000000000000000000000000000000000060
:108020000000000000000000000000008983010043
:1080300000000000000000008B8301008D83010020
:108040008F8301008F8301008F8301008F830100E4
:108050008F830100000000008F8301008F830100E7
:108060008F8301008F8301008F8301008F830100C4
:108070008F8301008F8301008F8301008F830100B4
:108080008F8301008F8301008F8301008F830100A4
:108090008F8301008F8301008F8301008F83010094
:1080A0008F8301008F8301000000000000000000AA
:1080B00000000000000000000000000000000000C0
:1080C00010B5064C2378002B07D1054B002B02D0AE
:1080D000044800E000BF0123237010BD6820002089
:1080E00000000000B0830100044B10B5002B03D04A
:1080F0000349044800E000BF10BDC0460000000076
:108100006C200020B0830100164B002B00D1144BD3
:108110009D46402292029A1A924600218B460F46B3
:108120001348144A121A00F065F80F4B002B00D0C8
:1081300098470E4B002B00D09847002000210400E8
:108140000D000D48002802D00C4800E000BF00F0F0
:108150002DF82000290000F09FF800F011F8C0462B
:108160000000080000800020000000000000000067
:108170006820002084200020000000000000000093
:10818000084B10B50400002B02D0002100E000BF16
:10819000054B1868836A002B00D09847200000F038
:1081A00031F8C04600000000A883010070B5002629
:1081B0000C4D0D4C641BA410A64209D1002600F002
:1081C000E7F80A4D0A4C641BA410A64205D170BD05
:1081D000B300EB5898470136EEE7B300EB589847E9
:1081E0000136F2E76020002060200020602000209F
:1081F0006420002003008218934200D17047197058
:108200000133F9E7FEE7C0461C4B1B78012B00D079
:1082100070471B4B1B681B07FAD11A4AF0231268E0
:10822000110019401A4201D0102924D1164A1268AF
:108230001A4210D0F022134B1B681340402BE7D199
:10824000114B1B681342E3D18022C1230121D205C7
:10825000DB00D150DCE70D4B0D4A1A6080220D4B3C
:1082600012021A60054B1B78012BD1D1044B1B68FD
:108270001B07DFD0CCE73029D8D0DBE7E00F00F0D8
:10828000E40F00F0E80F00F0EC0F00F004050040F0
:10829000DFFF07C0186C0040F8B5A020E0250123DF
:1082A000012403212D04C0052A001A41144204D0E0
:1082B0001A00C132FF32920011500133202BF3D14A
:1082C000A0250C4F0C4EED0500240122395DAB5961
:1082D0008A40A1211000C90098436850FA20134039
:1082E000064A4000AB50013400F00AF8032CECD1F0
:1082F000EAE7C046AC830100040500000C0500005D
:1083000082B00190019B002B14D0019B0A48013BD5
:1083100001930138C046C046C046C046C046C0466C
:10832000C046C046C046C046C046C046F1D1019BCB
:10833000002BEAD102B07047E703000003210A488E
:1083400002680A430260094802680A430260084959
:10835000084A094B9B1A03DD043BC858D050FBDC8C
:108360000648804706480047240500405405004061
:10837000B88301000020002068200020098201004D
:1083800009810100FEE7FEE7FEE7FEE7FEE7FEE704
:10839000F8B5C046F8BC08BC9E467047F8B5C04664
:1083A000F8BC08BC9E467047002000201516170038
:0883B00058FDFF7F01000000F1
:1083B80000000000000000000000000000000000B5
:1083C80000000000000000000000000000000000A5
:1083D8000000000000000000000000000000000095
:1083E8000000000000000000000000000000000085
:1083F8000000000000000000000000000000000075
:108408000000000000000000000000000000000064
:08841800E9800100C1800100B0
:040000031000833D29
:00000001FF
