:020000021000EC
:1080000000400020A9830100F1830100F3830100F7
:108010000000000000000000000000000000000060
:10802000000000000000000000000000F5830100D7
:108030000000000000000000F7830100F983010048
:10804000FB830100FB830100FB830100FB83010034
:10805000FB83010000000000FB830100FB830100A3
:10806000FB830100FB830100FB830100FB83010014
:10807000FB830100FB830100FB830100FB83010004
:10808000FB830100FB830100FB830100FB830100F4
:10809000FB830100FB830100FB830100FB830100E4
:1080A000FB830100FB8301000000000000000000D2
:1080B00000000000000000000000000000000000C0
:1080C00010B5064C2378002B07D1054B002B02D0AE
:1080D000044800E000BF0123237010BD6820002089
:1080E0000000000018840100044B10B5002B03D0E1
:1080F0000349044800E000BF10BDC0460000000076
:108100006C20002018840100164B002B00D1144B6A
:108110009D46402292029A1A924600218B460F46B3
:108120001348144A121A00F065F80F4B002B00D0C8
:1081300098470E4B002B00D09847002000210400E8
:108140000D000D48002802D00C4800E000BF00F0F0
:108150002DF82000290000F09FF800F011F8C0462B
:1081600000000800004000200000000000000000A7
:108170006820002084200020000000000000000093
:10818000084B10B50400002B02D0002100E000BF16
:10819000054B1868836A002B00D09847200000F038
:1081A00031F8C046000000001484010070B50026BC
:1081B0000C4D0D4C641BA410A64209D1002600F002
:1081C0001DF90A4D0A4C641BA410A64205D170BDCE
:1081D000B300EB5898470136EEE7B300EB589847E9
:1081E0000136F2E76020002060200020602000209F
:1081F0006420002003008218934200D17047197058
:108200000133F9E7FEE7C0461C4B1B78012B00D079
:1082100070471B4B1B681B07FAD11A4AF0231268E0
:10822000110019401A4201D0102924D1164A1268AF
:108230001A4210D0F022134B1B681340402BE7D199
:10824000114B1B681342E3D18022C1230121D205C7
:10825000DB00D150DCE70D4B0D4A1A6080220D4B3C
:1082600012021A60054B1B78012BD1D1044B1B68FD
:108270001B07DFD0CCE73029D8D0DBE7E00F00F0D8
:10828000E40F00F0E80F00F0EC0F00F004050040F0
:10829000DFFF07C0186C004070B5E221A025032362
:1082A0001022E020294EED05C9006B50AA51284A42
:1082B000C00013502020A85126480024135040200D
:1082C000A851E120C00013508020A851224813502B
:1082D00080204000A851535080218900A9511F4996
:1082E000FA2053508021C900A951E321C9005350FD
:1082F000E831A9511A49C000535080225201AA51B5
:10830000184A8021AB50A1228901D200A950E7214F
:10831000C9006B508021C901A95013496B508023BB
:108320001B02AB5000F022F80AE0A1238022DB0000
:108330009201EA50FA20012340005C4000F016F858
:10834000002CF2D180239B01AB51F3E70C05000018
:1083500014000050040700000C0700001407000080
:108360001C070000340700003C07000082B00190A9
:10837000019B002B14D0019B0A48013B019301385B
:10838000C046C046C046C046C046C046C046C046BD
:10839000C046C046C046C046F1D1019B002BEAD181
:1083A00002B07047E703000003210A4802680A434D
:1083B0000260094802680A4302600849084A094BFA
:1083C0009B1A03DD043BC858D050FBDC06488047AD
:1083D0000648004724050040540500402084010061
:1083E000002000206820002009820100098101008E
:1083F000FEE7FEE7FEE7FEE7FEE7FEE7F8B5C0466C
:10840000F8BC08BC9E467047F8B5C046F8BC08BC2E
:088410009E4670470020002089
:08841800F0FCFF7F01000000F1
:10842000000000000000000000000000000000004C
:10843000000000000000000000000000000000003C
:10844000000000000000000000000000000000002C
:10845000000000000000000000000000000000001C
:10846000000000000000000000000000000000000C
:1084700000000000000000000000000000000000FC
:08848000E9800100C180010048
:04000003100083A9BD
:00000001FF
