:020000021000EC
:108000000040002011850100598501005B850100B9
:108010000000000000000000000000000000000060
:108020000000000000000000000000005D8501006D
:1080300000000000000000005F8501006185010074
:10804000638501006385010063850100638501008C
:108050006385010000000000638501006385010065
:10806000638501006385010063850100638501006C
:10807000638501006385010063850100638501005C
:10808000638501006385010063850100638501004C
:10809000638501006385010063850100638501003C
:1080A00063850100638501000000000000000000FE
:1080B00000000000000000000000000000000000C0
:1080C00010B5064C2378002B07D1054B002B02D0AE
:1080D000044800E000BF0123237010BD6820002089
:1080E0000000000080850100044B10B5002B03D078
:1080F0000349044800E000BF10BDC0460000000076
:108100006C20002080850100164B002B00D1144B01
:108110009D46402292029A1A924600218B460F46B3
:108120001348144A121A00F065F80F4B002B00D0C8
:1081300098470E4B002B00D09847002000210400E8
:108140000D000D48002802D00C4800E000BF00F0F0
:108150002DF82000290000F041F900F011F8C04688
:1081600000000800004000200000000000000000A7
:108170006820002084200020000000000000000093
:10818000084B10B50400002B02D0002100E000BF16
:10819000054B1868836A002B00D09847200000F038
:1081A00031F8C046000000007C85010070B5002653
:1081B0000C4D0D4C641BA410A64209D1002600F002
:1081C000D1F90A4D0A4C641BA410A64205D170BD1A
:1081D000B300EB5898470136EEE7B300EB589847E9
:1081E0000136F2E76020002060200020602000209F
:1081F0006420002003008218934200D17047197058
:108200000133F9E7FEE7C04680B500AF00F01CF887
:10821000031E06D0094B0A4A1A600A4B802212023A
:108220001A6000F051F8031E05D08023DA05C1233F
:10823000DB000121D150C046BD4680BD0405004091
:10824000DFFF07C0186C004080B500AF1A4B1B68F9
:10825000FF221340012B2AD1184B1B680F22134019
:1082600025D1174B1B68F022134006D1154B1B6814
:10827000F022134001D101231AE0114B1B68F022B8
:108280001340102B06D10F4B1B68F022134001D175
:1082900001230DE00A4B1B68F0221340302B06D15E
:1082A000084B1B68F022134001D1012300E000239A
:1082B0001800BD4680BDC046E00F00F0E40F00F09E
:1082C000E80F00F0EC0F00F080B500AF0D4B1B681D
:1082D000FF221340012B11D10B4B1B680F221340BF
:1082E0000CD10A4B1B68F0221340402B06D1084BDF
:1082F0001B68F022134001D1012300E00023180085
:10830000BD4680BDE00F00F0E40F00F0E80F00F084
:10831000EC0F00F090B583B000AF78600C00100057
:108320001900FB1C221C1A70BB1C021C1A707B1C3F
:108330000A1C1A70FB1C1A78BB1C1B785B001A43C2
:108340007B1C1B789B001A431823FB181B781B020D
:108350001A4311001C23FB181B781A04A023DB0509
:1083600011437A68C132FF329200D150C046BD46F7
:1083700003B090BD80B584B002AF78607868002308
:10838000019300230093002301220121FFF7C2FF84
:10839000C046BD4602B080BD80B582B000AF7860F7
:1083A000A023DA0501217B689940A123DB00D1508D
:1083B000C046BD4602B080BD80B582B000AF7860D7
:1083C000A023DB0501217A6891400A0002495A5036
:1083D000C046BD4602B080BD0C05000080B586B029
:1083E00000AF1723FB1800221A7004233B610AE038
:1083F0003B691800FFF7BEFF3B691800FFF7CCFF91
:108400003B6901333B613B690C2BF1DD0D23FB60C4
:108410000AE0FB681800FFF7ADFFFB681800FFF7E4
:10842000CBFFFB680133FB60FB680F2BF1DD042001
:10843000FFF7C2FFFA239B00180000F043F8642006
:1084400000F040F80A237B607B6818000138C046C2
:10845000C046C046C046C046C046C046C046C046EC
:10846000C046C046C046F1D1C0460123BB6021E0F2
:108470001723FB181B78002B03D00D20FFF78CFF70
:1084800002E00D20FFF798FF17217B181B785A1E7A
:108490009341DBB201225340DBB21A007B181A7001
:1084A0001A7801210A401A70642000F00BF8BB68AA
:1084B0000133BB60BB687F2BDADD00231800BD46AB
:1084C00006B080BD80B584B000AF786015E07B68F1
:1084D000013B7B600D4BFB60FB6818000138C04618
:1084E000C046C046C046C046C046C046C046C0465C
:1084F000C046C046C046F1D1C0467B68002BE6D1DD
:10850000C046C046BD4604B080BDC046E70300007B
:1085100003210A4802680A430260094802680A43C4
:1085200002600849084A094B9B1A03DD043BC858FE
:10853000D050FBDC06488047064800472405004031
:10854000540500408885010000200020682000209C
:108550000982010009810100FEE7FEE7FEE7FEE770
:10856000FEE7FEE7F8B5C046F8BC08BC9E4670477B
:10857000F8B5C046F8BC08BC9E46704700200020F5
:0885800088FBFF7F01000000F1
:1085880000000000000000000000000000000000E3
:1085980000000000000000000000000000000000D3
:1085A80000000000000000000000000000000000C3
:1085B80000000000000000000000000000000000B3
:1085C80000000000000000000000000000000000A3
:1085D8000000000000000000000000000000000093
:0885E800E9800100C1800100DF
:040000031000851153
:00000001FF
